:020000040800F2
:10000000E007002075010008150E0008210800080F
:1000100000000000000000000000000000000000E0
:10002000000000000000000000000000B90E000801
:100030000000000000000000170E00082D1000084E
:100040008701000887010008870100088701000870
:1000500087010008D10600080D07000849070008BD
:1000600000000000870100088701000887010008E0
:100070008701000887010008870100088701000840
:100080008701000887010008870100088701000830
:10009000000000008701000887010008250800080B
:1000A0008701000887010008870100088701000810
:1000B0008701000887010008000000000000000020
:1000C00000F002F800F047F80CA030C808382418F7
:1000D0002D18A246671EAB4654465D46AC4201D180
:1000E00000F039F87E460F3E0FCCB646012633426B
:1000F00000D0FB1AA246AB4633431847C02100008C
:10010000E0210000103A02D378C878C1FAD852072B
:1001100001D330C830C101D504680C6070470000BD
:100120000023002400250026103A01D378C1FBD813
:10013000520700D330C100D50B6070471FB500983F
:10014000019900F0A2F900F017F91FBD10B50020C9
:1001500000F059F910BD00F0FFF91146FFF7EEFF6E
:1001600001F0D8FB00F031FA03B4FFF7EFFF03BC56
:1001700000F0ECF90748804707480047FEE7FEE734
:10018000FEE7FEE7FEE7FEE704480549054A064BA1
:1001900070470000CD100008C1000008E0010020F9
:1001A000E0070020E0030020E0030020F8B5074648
:1001B00015460E46102000F0F5F8040009D06760DF
:1001C000A660E56000F0EAF80168216004600020A4
:1001D000F8BD0120F8BD01E004C0091F0429FBD2CD
:1001E0008B0701D50280801CC90700D002707047C0
:1001F00000290BD0C30702D00270401C491E0229FF
:1002000004D3830702D50280801C891EE3E7002205
:10021000EEE70022DFE7002203098B422CD3030A1A
:100220008B4211D300239C464EE003460B433CD443
:10023000002243088B4231D303098B421CD3030AAB
:100240008B4201D394463FE0C3098B4201D3CB01DB
:10025000C01A524183098B4201D38B01C01A52410B
:1002600043098B4201D34B01C01A524103098B420F
:1002700001D30B01C01A5241C3088B4201D3CB00FA
:10028000C01A524183088B4201D38B00C01A5241DD
:1002900043088B4201D34B00C01A5241411A00D28D
:1002A00001465241104670475DE0CA0F00D04942F6
:1002B000031000D34042534000229C4603098B4266
:1002C0002DD3030A8B4212D3FC22890112BA030AEE
:1002D0008B420CD3890192118B4208D38901921170
:1002E0008B4204D389013AD0921100E08909C309F5
:1002F0008B4201D3CB01C01A524183098B4201D3F7
:100300008B01C01A524143098B4201D34B01C01AE1
:10031000524103098B4201D30B01C01A5241C30859
:100320008B4201D3CB00C01A524183088B4201D3C8
:100330008B00C01A5241D9D243088B4201D34B00E3
:10034000C01A5241411A00D20146634652415B1025
:10035000104601D34042002B00D549427047634606
:100360005B1000D3404201B50020C046C04602BD2C
:10037000704770477047000070B5064C7C44064DCE
:100380007D4403E0206800198047241DAC42F9D168
:1003900070BD00005C1F0000601F00000048704737
:1003A000B801002070B5064600F052F805683046E6
:1003B0000B30C408E400B44201D8002070BD686866
:1003C0002A46002818D00168A14211D30B462146C5
:1003D00008318B4208D3436801194B6003681B1B2B
:1003E0000B605160046001E041685160001D70BD08
:1003F000024640680028E6D12146284600F030F841
:100400000028DCD170BDF8B50646FFF7C7FF0090A5
:10041000054615E0002E02D0E068B0420FD12068FA
:1004200028600098A168076860688847204600F047
:1004300060F800980068B84202D00098E8E72546C6
:100440002C68002CE6D1F8BD0048704780010020E0
:100450000048704788010020704770477047704718
:1004600038B504460A4600206946C046C046002802
:1004700005D002462046009900F08DF8012038BDD5
:1004800010B5012000F0C3F810BDF8B5C046C04655
:10049000054600200C461020C0460646A819A0427A
:1004A0000DD9324669460020C046C046070001D13A
:1004B00000F0ADF80098A04200D00546C419FFF73F
:1004C000C7FFF61D07460560F008C000461928461C
:1004D00000F008F8B44204D031463868A21B00F09E
:1004E0005AF8F8BD0021016041608060704710201B
:1004F000704770B50446051FFFF7AAFF0068002C7F
:100500001AD0446801E020466468002C01D0AC4257
:10051000F9D301680A18AA4204D12A680546891845
:10052000016000E0456028684119A14205D1616879
:10053000696021684018286070BD6C6070BD10B59E
:10054000002801D000F002F810BD00000149182079
:10055000ABBEFEE7260002007546FFF775FFAE460C
:10056000050069465346C008C000854618B020B54E
:10057000FFF70AFE60BC00274908B6460026C0C542
:10058000C0C5C0C5C0C5C0C5C0C5C0C5C0C5403D4B
:1005900049008D46704710B50346406801E00346A8
:1005A0004068002801D08842F9D31868C3188B42EC
:1005B00006D0CB1CD808C000001D411A521A0146B3
:1005C000081D0A60FFF795FF10BD10B50446C04630
:1005D000C0462046FFF7C8FD10BD70B505460C4665
:1005E0000A2000E06D1C00F018F8002D06D02878D5
:1005F0000028F7D102E0641C00F00FF8002C02D0B4
:1006000020780028F7D10A2000F007F870BD10B557
:1006100000F00AF8FFF793FF10BD08B569460870AF
:100620000320ABBE08BD704710B5012805D00021DE
:1006300003A0FFF7D2FF012010BD09A1F8E70000D9
:1006400053494752544D454D3A204F7574206F66BB
:100650002068656170206D656D6F72790000000023
:100660003A2048656170206D656D6F727920636F07
:1006700072727570746564000248002101704170E7
:10068000704700000000002070B500F0D7FC0D4856
:100690007D21C9000068FFF7BEFD411E0A48002504
:1006A000ED43814209D8094C61610321284601F0DC
:1006B00099F80020A061072020610021284601F060
:1006C00091F870BD04000020FFFFFF0000E000E093
:1006D00010B5012000F038F90B4C002806D0206836
:1006E000002800D08047012000F0D4F8022000F05C
:1006F0002BF9002806D06068002800D0804702202F
:1007000000F0C8F810BD00004001002010B5042022
:1007100000F01AF90B4C002806D0A068002800D081
:100720008047042000F0B6F8082000F00DF90028FA
:1007300006D0E068002800D08047082000F0AAF822
:1007400010BD00004001002010B50549FF200B69D5
:10075000013002469A4302D1086100F0B9FC10BD95
:1007600000180240F0B587B00F4605461E461446F5
:10077000182101A8FFF74DFD05200007854201D192
:10078000012012E02148854201D102200DE02048DD
:10079000854201D1042008E01E48854201D108208D
:1007A00003E01D4885422ED120200021002C0ED0D0
:1007B0000122012C0DD00223022C0CD0032C0DD0D1
:1007C000052C0CD0062C0CD0072C0DD00EE002917D
:1007D0000BE0029106E00493029107E003220292EB
:1007E00003E00292049201E0029304910B49019705
:1007F00003964A6B02434A63496B0140009101A989
:10080000284600F0ABF807B0F0BD0000000400502F
:1008100000080050000C005000140050001002406E
:10082000FEE7000010B5144881690A0706D5C169C2
:1008300008221143C161FFF71FFF10BD4B070122C2
:10084000002B05DA81691143816100F037FB10BD8F
:100850008B0705D581691143816100F0D7FB10BD7D
:100860008A0602D5C169202203E0C906F7D5C1690D
:1008700010221143C16110BD0054004008B5044965
:10088000CA6B0243CA63C96B0140009108BD0000F6
:100890000010024002490A6882430A607047000063
:1008A0008018024010B50479002326490268002C04
:1008B00041D0002A3DD04479002C12D0012C18D010
:1008C000022C19D001238279002A32D01D498039A7
:1008D000012A19D0022A20D0032A22D00220034361
:1008E00027E04C6894434C6002680C6814430C6029
:1008F000E9E70C68944301E00C6814430C6002685B
:100900004C6814434C60DEE702684C6894434C60CA
:1009100000680A6802430A600BE002680C689443AE
:1009200002E002680C6814430C6000684A680243E5
:100930004A60184610BD0C6894430C6000684A6811
:100940008243F5E78018024003490968884301D0D3
:10095000002070470120704780180240F0B5002445
:100960004CE00123A3401A4047D04B68012B01D033
:10097000022B0FD18E688568134653435F00DF1941
:10098000BD4373431D438560CB684568534395431E
:100990001D4345600F69C668134653435D005D19EA
:1009A000AE435F433E43C6604E68022E1FD1FF2A0E
:1009B0000ED817464A69066A94461A467A437A431D
:1009C0001701BF1ABE4367467A43164306620EE01C
:1009D000160A324672434F6972437243BC4616018F
:1009E000B71A466ABE4367467A43164346624A6868
:1009F00006685343AE431E430660641C0A681346F0
:100A0000E340AED10020F0BD30B50268520852007C
:100A100002608C68CA6803681F252D021202AB436E
:100A20002243134303604A680261026801231A43A8
:100A3000026083680122D203934383608C690B694F
:100A400085682343ED0AED021D4385600B69002B89
:100A500002D08368134383600C68036803252D0567
:100A6000AB43234303604B694168914319434160A1
:100A7000002030BD08B504494A6B02434A63496B04
:100A80000140009108BD00000010024010B57D211A
:100A9000C900FFF7C0FB0449401E4861002088617F
:100AA0000520086110BD000000E000E010B504461C
:100AB00000F0D2F9206000F0AFF9606000F0BCF9FE
:100AC000A06010BD10B50024032823D1124840694E
:100AD00003218007800F09040843C94340180AD046
:100AE00001280CD0022810D000F0B6F900F094F9DB
:100AF00000F0A2F901E000F0AFF904460AE000F0CE
:100B00000FF8012806D1054C04E000F011F8012887
:100B100000D1C403204610BD401002400024F40060
:100B2000024800684005C00F7047000000100240F6
:100B30000248C0698007C00F7047000040100240A3
:100B40000248C06870210840704700000010024051
:100B50000248C0688007800F704700000010024004
:100B60000248C0684004400E704700000010024078
:100B7000014908607047000004000020FEB50446EB
:100B800000680D46012738405CD12969A868EA69E8
:100B9000084369691143084321682B4A11400843FF
:100BA0002060E96860680322120390430843606094
:100BB000A969A068121190430843A06023488442A9
:100BC00003D10320FFF77EFF06E02148844232D1A3
:100BD0006846FFF76BFF029800282CD06E68002E45
:100BE00029D029680027EA690B2924D80123DB03CF
:100BF0009A4213D109068A0D16498958FFF70BFB53
:100C00004000710840183146FFF705FB81B21248D9
:100C100008400907490F0143E1600CE009068A0D0D
:100C20000C498958FFF7F7FA710840183146FFF769
:100C3000F2FA80B2E0602888E16A80B2090909010D
:100C40000143E1623846FEBDF369FFEF0038014021
:100C5000004400409C1A0008F0FF0000F0B58DB081
:100C60001C2106A8FFF7D5FA18216846FFF7D1FA2C
:100C7000314948690322120390430025486102204C
:100C8000FFF7F8FE40200226009001240627019677
:100C9000029503AAB0C269462848FFF75FFE80208C
:100CA00000900196029503AAB0C269462348FFF757
:100CB00055FE6005FFF7E2FD214801680902090AB7
:100CC00001602049E00508601F4C2068310488431A
:100CD00020601E480790902006950A900895099577
:100CE0000B9506A90C952046FFF78EFE606831062D
:100CF00008436060E06816490840E060E068E1137E
:100D00008843E0602068090188432060206808214A
:100D100008432060206810210843206020682021BB
:100D20000843206020680421084320602068304385
:100D300020600DB0F0BD00004010024000040050E3
:100D400014E400E000E100E0005400406C21C00029
:100D500001F8FFFFF0B58FB0202106A8FFF759FA80
:100D600018216846FFF755FA28480121C26B49044B
:100D70000A43C263C26B0A400E92426B01210A43CE
:100D80004263406B002408400E9005910420052723
:100D900002260D4600903F070294039401960494A6
:100DA00069463846FFF7DAFD082005950090029461
:100DB00003946946019604943846FFF7CFFDE1207D
:100DC000400207900894069409940A940C940D9498
:100DD0000C200F4C0B9006A92046FFF7CFFE606851
:100DE0000921C90288436060A0682A218843A06065
:100DF000206828432060E0698002C00FFBD0E069D2
:100E00004002C00FF7D00FB0F0BD0000001002404C
:100E100000440040FEE77047054989688A093C2183
:100E20000A400A400349895CC906C90EC840704798
:100E300000100240CC1A000805498968054A490497
:100E4000490F8900515CC906C90EC84070470000AF
:100E5000001002400C1B000870B5154EB068382118
:100E60000840144C082809D06500102808D03068C4
:100E700001218004400F8140284616E0204670BDC5
:100E8000FFF766FE022801D0032800D02C46F06848
:100E9000450F6D1CFFF754FE0609761CFFF760FE38
:100EA00060433146FFF7B7F92946FFF7B4F970BD43
:100EB0000010024000127A0070470000F8B5504858
:100EC000426A514F4F49387808230A54401C387001
:100ED0004C480A7800212830AE2A56D03CDC022A41
:100EE0005DD00B2A61D00F2A52D0102A4CD100229B
:100EF00000218154521C282AFADB424950314B7997
:100F0000CA791B0712011B0F1A43D5B20A798E78D2
:100F100096468A7994460A7A0092CB7A4A7B1B07D6
:100F200012011B0F1A43D4B28B7A0A7B897B022EE3
:100F300045D0344E7F275036767836013E43A12780
:100F40003E4006704570754685706546C570009DCB
:100F50000571222505724DE082240725E12A19D06A
:100F6000E22A28D0E32A28D0F62A0DD15522027091
:100F70005622427032228270C170017141718171BA
:100F8000C171112101724372F8BD26210170F8BDB3
:100F90000370F8BD042202704470857003E054228F
:100FA000027041708170C170F8BD132202700C2272
:100FB00042708170F8BD0470F8BD0570F8BD124F25
:100FC000BE78761CF6B2BE70A227012E0CD0A126E8
:100FD00006704570754685706546C570009D057143
:100FE000094E0025B57004E0077044708370C2702C
:100FF0000171077244728372C2720173F8BD0000FE
:10100000005400406400002000000020054A04490C
:101010005078095C401C50700348816270470000A2
:101020008C000020000000200054004002480168AD
:10103000491C0160704700000800002070B51F4D7A
:10104000A968382001401E481E4C08290DD04300D5
:1010500010291BD0182913D0202914D02868012169
:101060008004400F8140184624E02060A8683C219D
:10107000800908401449085C2168C140216070BDA6
:101080007D200002F1E70120C003EEE7E9688A074E
:10109000E968920F4906490F491C032A00D01846F7
:1010A000FFF7B9F80146E8684004400E4843E96894
:1010B000490F491CFFF7AFF8D7E7000000100240C6
:1010C00000127A0004000020CC1A000870470000CB
:1010D00070B52021204800F03CFB80211E4800F024
:1010E00076FB00211C4800F072FB1B4800F017FB48
:1010F000322000F0C7FB28222021174800F00AFB0D
:10110000154DA83508E00024134800F027FB2855AA
:10111000641CE4B2282CF7D30F4800F05DFB0028D4
:10112000F1D120210C4800F014FB03210A4800F003
:101130004EFB0021084800F04AFB074800F0EFFA98
:101140000021152000F0D6FB012000F091FB0121C9
:10115000152000F0CFFB70BD0C00002030B589B029
:1011600000240694182168460794FFF752F80120DE
:1011700000F0A2F8042000F09FF8022000F09CF894
:101180002049402088622049202088621F4802218F
:10119000026ED208D20002668015069001256846CC
:1011A00005774477817706A8FFF77CFB05200007C9
:1011B000C2682B04032109048A431A43C2600268EF
:1011C0008A430260124801680A02120A802143071A
:1011D0001A4302600F48016040200090029403947B
:1011E0006946019504940748FFF7B8FB202000905A
:1011F000029403946946019504940348FFF7AEFBFB
:1012000009B030BD0008005000040050081802402A
:1012100004E400E000E100E010B522480221026889
:10122000D208D2000A43026001684907490F022927
:10123000FAD11D4801688215114301600168490512
:10124000C90FFBD01949C268194B1A401143C1603C
:1012500001680122120611430160C16812011143A5
:10126000C16001688901C90FFBD081680F22120299
:101270009143816082680221D208D2000A438260D1
:101280003822816811401029FBD18168072212039E
:1012900091438160074C2046FFF7F8FB2046FFF79B
:1012A00067FC10BD00200240001002400208002030
:1012B0008C80FF1F0090D00308B504494A6B02439D
:1012C0004A63496B0140009108BD000000100240D4
:1012D00070B504464034607D1421204D48434119C7
:1012E00028588989816200BF012000BF401C052861
:1012F000FBDBA07D1421484341192858898981616D
:1013000000BF00BF022000BF401C0528FBDB607D42
:1013100014214843411928588989816100BF00BFC1
:10132000022000BF401C0528FBDBA07D00F0D0FAA6
:10133000002810D00021607D142250434219285803
:101340009289826200BF00BF022000BF401C0528B6
:10135000FBDB084670BD0121EDE700002C1B0008F7
:101360004030827D14214A43134953188A589B897F
:10137000936200BF012200BF521C052AFBDB427DA5
:1013800014235A4353188A589B89936100BF00BFA6
:10139000022200BF521C052AFBDB407D1422504371
:1013A000421808589289826200BF00BF022000BF25
:1013B000401C0528FBDB70472C1B0008F8B50546D0
:1013C0004035A87D14211D4C0027484301192058A1
:1013D00089898161384600BF401C0528FBDB002657
:1013E000687D1421484301192058898981610020B2
:1013F00000BF401CC0B20528FAD3A87D00F068FAEF
:101400000721891B88403843C7B2002000BF401C19
:10141000C0B20528FAD3687D142148430119205829
:1014200089898162002000BF401CC0B20528FAD320
:10143000761C082ED4DB3846F8BD00002C1B0008B3
:101440004030827D14214A43134953188A589B899E
:10145000936100BF012200BF521C052AFBDB427DC5
:1014600014235A4353188A589B89936100BF00BFC5
:10147000022200BF521C052AFBDB407D1422504390
:10148000421808589289826200BF00BF022000BF44
:10149000401C0528FBDB70472C1B0008F3B581B00E
:1014A000019E0025174C0F4640360720411B0120A6
:1014B0008840384201D0012100E00021019800F06D
:1014C000A2F8707D1421484301192058898981614F
:1014D00000BF00BF022000BF401C0528FBDB707D61
:1014E00014214843011920588989816200BF00BF37
:1014F000022000BF401C0528FBDB6D1C082DD4DB3F
:10150000FEBD00002C1B000870B5054600214035CB
:101510000446A974E974203001744174687D062181
:1015200000F0A0FAA87D062100F09CFA01212046D7
:1015300000F05AF80121204600F065F870BD70B542
:1015400004460020608120794006050EE0880128CD
:1015500000D10543204600F08BF829462046FFF7CE
:101560009DFF2046FFF7B4FE002804D0E088012844
:1015700019D000252BE0204600F04CF8022070BD69
:101580002046FFF71BFF02466089E368411C61812A
:101590001A54608921898842204602D2FFF7E0FE72
:1015A00001E0FFF74DFF608921898842E8D311E00F
:1015B000E068415D2046FFF771FF2046FFF788FE97
:1015C00000280CD06089401C6D1C6081EDB2208920
:1015D000A842EDD8204600F01DF8002070BD20463E
:1015E00000F018F8032070BD70B5044640340D4675
:1015F000607D00F07FF9002D04D0607D00F068F977
:101600000028FAD070BD10B54030807D00F072F92E
:1016100010BD00004030827D14214A431349531805
:101620008A589B89936200BF012200BF521C052A81
:10163000FBDB427D14235A4353188A589B899361DC
:1016400000BF00BF022200BF521C052AFBDB807DC9
:1016500014225043421808589289826100BF00BF8B
:10166000022000BF401C0528FBDB70472C1B000834
:101670004030827D14214A430C4953188A589B8973
:10168000936200BF012200BF521C052AFBDB407D94
:1016900014225043421808589289826200BF00BF4A
:1016A000022000BF401C0528FBDB70472C1B0008F4
:1016B00010B5044C04600446403423756175A2756E
:1016C00010BD0000B4220008034901600022014659
:1016D00040314A758A757047B422000870B50446D7
:1016E000202A00DD2022A1800120E08025462281E1
:1016F0002035297C204610300818E06020680168F9
:1017000020468847687CA17A4018C0B268740021DE
:10171000E18070BD10B5C9B2FFF7E0FF10BD10B594
:1017200004464034E17C002901D0012010BD01684D
:10173000096888470021A174E17410BD818052219D
:101740000A5C014632315118C16000210181C1801B
:10175000704700B5C9B2FFF7F1FF00BD10B50146F3
:1017600020310A7C4C7C0023A24203D10B744B74C1
:10177000002010BD1030641EA24203D1105C0B7417
:101780004B7410BD531C0B74105C10BDF0B51546A6
:101790000E460746002405E0315D384600F005F8A6
:1017A000641CE4B2AC42F7DBF0BD30B50246403217
:1017B000937C202B08D005465C1C32359474595517
:1017C0000189491C018130BD0120D07430BD00B5B4
:1017D000C9B2FFF7EAFF00BD2030417C007C081A47
:1017E000C0B270478307FF22DB0E9A408907090EBB
:1017F0009940002808DB830809489B001B181868DB
:1018000090430843186070470007000F08388308AA
:1018100004489B001B18D86990430843D86170475F
:1018200000E400E000ED00E010B500230C220B21E5
:101830000348FFF73DFF034A0349FEF7B7FC10BD1D
:10184000E800002000000008C916000810B50023B9
:101850000C220B210348FFF72BFF034A0349FEF735
:10186000A5FC10BD0C00002000000008C9160008EF
:1018700003490A6810180A688242FCD370470000C6
:1018800008000020F8B505460F48002400680D49FF
:101890000090FEF7C0FC68430C49074688690B4975
:1018A0008D69461B002E01DDA41906E07D21C900CB
:1018B0000098FEF7B0FC80190419BC4201D82846F4
:1018C000EDE7F8BD40420F000400002000E000E01A
:1018D00060280AD21421484305490A581269401861
:1018E0008089024201D0012070470020704700002B
:1018F0002C1B0008602808D2054A1423584383187B
:1019000000299989105801D0816170478162704720
:101910002C1B000808B55148012102680A430260E7
:101920000068084000904D4809074038C26B0A43E0
:10193000C263C06B08400090FFF76EFCFEF7A4FE88
:10194000FFF70CFCFFF78AF9FFF704FA05212620C0
:1019500000F088F80521152000F084F801211520F9
:10196000FFF7C8FF01212620FFF7C4FF0A20FFF779
:101970007FFF00212620FFF7BDFF6420FFF778FFDF
:1019800001212620FFF7B6FF0A20FFF771FF002193
:101990003348FFF7B9FD324C0125D03425700026BD
:1019A000667020212E48FFF7D4FE00212C48FFF757
:1019B0000EFFC0212A48FFF70AFF022221462848CD
:1019C000FFF7E4FE2648FFF7AAFE0A20FFF750FFC4
:1019D0002570667020212248FFF7BBFE02212048B7
:1019E000FFF7F5FEC0211E48FFF7F1FE0222214657
:1019F0001B48FFF7CBFE1A48FFF791FE0A20FFF7BE
:101A000037FF20211648FFF7A4FE04211448FFF7F2
:101A1000DEFEC0211248FFF7DAFE1148FFF77FFE15
:101A20000A20FFF725FF2570667020210C48FFF77C
:101A300090FE01210A48FFF7CAFEC0210848FFF7BF
:101A4000C6FE022221460648FFF7A0FE0448FFF723
:101A500066FE0A20FFF70CFFFEE700004010024080
:101A60000C00002070B560280ED208290CD00A4C5A
:101A7000142242431319042907D09D89A0580A460D
:101A800003232946FEF76EFE70BD1969491CFBD081
:101A90000321FFF7E7FF70BD2C1B000801000000C9
:101AA0000200000004000000060000000800000022
:101AB0000A0000000C0000001000000020000000E0
:101AC0004000000080000000000100000000000055
:101AD0000000000000000000000000000000000006
:101AE00000000000000000000000000001000000F5
:101AF00002000000030000000400000006000000D7
:101B000007000000080000000900000000000000BD
:101B100000000000000000000000000001000000C4
:101B2000020000000300000004000000000000505C
:101B300000000040002401400100010000000000FE
:101B4000000000500000004000240140020002009C
:101B5000000000040000005000000040002401408C
:101B600004000300000000080000005000000040D6
:101B700000240140080004000000000C0000005098
:101B8000002000400024014010000100000000106F
:101B9000000000500000004000240140200001002F
:101BA0000000001400000050000400400024014028
:101BB0004000010000000018000000500004004038
:101BC00000240140800002000000001C00000050C2
:101BD000002C01400000000000010100FFFFFFFF9A
:101BE00000000050002C0140000000000002020034
:101BF000FFFFFFFF00000050002C0140000000002C
:101C000000040300FFFFFFFF00000050002C014014
:101C10000000000000080400FFFFFFFF000000506C
:101C2000000000000000000000100000FFFFFFFFA8
:101C30000000005000000000000000000020000034
:101C4000FFFFFFFF00000050000000000000000048
:101C500000400000FFFFFFFF0000005000000000F8
:101C60000000000000800000FFFFFFFF00040050A4
:101C700000040040002401400100030000000000B7
:101C80000004005000040040002401400200040051
:101C900000000000000400500000000000000000F0
:101CA00004000000FFFFFFFF0004005000000000E0
:101CB0000000000008000000FFFFFFFF00040050CC
:101CC000000000000000000010000000FFFFFFFF08
:101CD0000004005000000000000000002000000090
:101CE000FFFFFFFF000400500000000000000000A4
:101CF00040000100FFFFFFFF000400500000000053
:101D00000000000080000200FFFFFFFF0004005001
:101D1000000000000000000000010300FFFFFFFFC3
:101D20000004005000000000000000000002040059
:101D3000FFFFFFFF00040050000000000000000053
:101D400000040000FFFFFFFF00040050000000003F
:101D50000000000000080000FFFFFFFF000400502B
:101D6000000000000000000000100000FFFFFFFF67
:101D700000040050000000000000000000200000EF
:101D8000FFFFFFFF00040050000000000000000003
:101D900000400000FFFFFFFF0004005000000000B3
:101DA0000000000000800000FFFFFFFF000800505F
:101DB00000000000002401400100000000000000BD
:101DC0000008005000000000002401400200000054
:101DD0000000000000080050000000000024014046
:101DE0000400000000000000000800500000000097
:101DF000002401400800000000000000000800501E
:101E0000000000000024014010000000000000005D
:101E100000080050000000000024014020000000E5
:101E2000000000000008005000000000000000005A
:101E300040000100FFFFFFFF00080050000000000D
:101E40000000000080000200FFFFFFFF00080050BC
:101E5000000000000000000000010300FFFFFFFF82
:101E60000008005000000000000000000002040014
:101E7000FFFFFFFF0008005000000000000000000E
:101E800000040000FFFFFFFF0008005000000000FA
:101E90000000000000080000FFFFFFFF00080050E6
:101EA000000000000000000000100000FFFFFFFF26
:101EB00000080050000000000000000000200000AA
:101EC000FFFFFFFF000800500000000000000000BE
:101ED00000400000FFFFFFFF00080050000000006E
:101EE0000000000000800000FFFFFFFF000C00501A
:101EF000000000000000000001000000FFFFFFFFE5
:101F0000000C005000000000000000000200000073
:101F1000FFFFFFFF000C0050000000000000000069
:101F200004000000FFFFFFFF000C00500000000055
:101F30000000000008000000FFFFFFFF000C005041
:101F4000000000000000000010000000FFFFFFFF85
:101F5000000C005000000000000000002000000005
:101F6000FFFFFFFF000C0050000000000000000019
:101F700040000000FFFFFFFF000C005000000000C9
:101F80000000000080000000FFFFFFFF000C005079
:101F9000000000000000000000010000FFFFFFFF44
:101FA000000C0050000000000000000000020000D3
:101FB000FFFFFFFF000C00500000000000000000C9
:101FC00000040000FFFFFFFF000C005000000000B5
:101FD0000000000000080000FFFFFFFF000C0050A1
:101FE000000000000000000000100000FFFFFFFFE5
:101FF000000C005000000000000000000020000065
:10200000FFFFFFFF000C0050000000000000000078
:1020100000400000FFFFFFFF000C00500000000028
:102020000000000000800000FFFFFFFF00140050D0
:10203000000000000000000001000000FFFFFFFFA3
:10204000001400500000000000000000020000002A
:10205000FFFFFFFF00140050000000000000000020
:1020600004000000FFFFFFFF00140050000000000C
:102070000000000008000000FFFFFFFF00140050F8
:10208000000000000000000010000000FFFFFFFF44
:1020900000140050000000000000000020000000BC
:1020A000FFFFFFFF001400500000000000000000D0
:1020B000400000000000000000140050000000007C
:1020C000000000008000000000000000001400502C
:1020D00000000000000000000001000000000000FF
:1020E000001400500000000000000000000200008A
:1020F000000000000014005000000000000000007C
:102100000004000000000000001400500000000067
:102110000000000000080000FFFFFFFF0014005057
:10212000000000000000000000100000FFFFFFFFA3
:10213000001400500000000000000000002000001B
:10214000FFFFFFFF0014005000000000000000002F
:1021500000400000FFFFFFFF0014005000000000DF
:102160000000000000800000FFFFFFFF00000000F3
:10217000000000000000000000000000000000005F
:10218000000000000000000000000000000000004F
:10219000000000000000000000000000000000003F
:1021A000000000000000000000000000000000002F
:1021B000000000000000000000000000000000001F
:1021C000000000000000000000000000000000000F
:1021D00000000000000000000000000000000000FF
:1021E00000000000000000000000000000000000EF
:1021F00000000000000000000000000000000000DF
:1022000000000000000000000000000000000000CE
:1022100000000000000000000000000000000000BE
:1022200000000000000000000000000000000000AE
:10223000000000000000000000000000000000009E
:10224000000000000000000000000000000000008E
:10225000000000000000000000000000000000007E
:10226000000000000000000000000000000000006E
:10227000000000000000000000000000000000005E
:10228000000000000000000000000000000000004E
:10229000000000000000000000000000000000003E
:1022A000000000000000000000000000000000002E
:1022B000000000003F15000809150008E42200088E
:1022C000000000200C00000004010008F0220008BB
:1022D0000C000020D40700002001000871F5FFFF6A
:1022E00049F5FFFF000001000024F4000000000099
:04000005080000C12E
:00000001FF
