:020000040800F2
:10000000F80800207502000829260008691E00086B
:1000100000000000000000000000000000000000E0
:10002000000000000000000000000000CD260008D5
:1000300000000000000000002B26000871280008C6
:10004000870200088702000887020008870200086C
:10005000870200084D1C0008811C0008C51C000810
:1000600000000000870200088702000887020008DD
:10007000870200088702000887020008870200083C
:10008000870200088702000887020008870200082C
:100090000000000087020008870200086D1E0008AB
:1000A0008702000887020008870200081529000857
:1000B0002529000887020008000000000000000059
:1000C00000F002F800F0C6F80CA030C80838241878
:1000D0002D18A246671EAB4654465D46AC4201D180
:1000E00000F0B8F87E460F3E0FCCB64601263342EC
:1000F00000D0FB1AA246AB4633431847C03B000072
:10010000E03B0000103A02D378C878C1FAD8520711
:1001100001D330C830C101D504680C6070470000BD
:100120000023002400250026103A01D378C1FBD813
:10013000520700D330C100D50B60704710B56E294F
:1001400002D100F0D6FC10BD702902D101F023F8D5
:1001500010BD662902D103F01BF910BD652902D13B
:1001600003F016F910BD672902D103F011F910BD93
:10017000612902D1C046C04610BD03681B0A01D3E5
:1001800080231943692902D100F002F910BD6429C6
:1001900002D100F0FDF810BD752902D100F0F8F889
:1001A00010BD6F2902D100F0A1FF10BD782902D146
:1001B00000F0DEFF10BDE92902D100F03DFF10BDC7
:1001C000E42902D100F038FF10BDF52902D100F07A
:1001D00033FF10BDEF2902D100F094FF10BDF829C4
:1001E00002D100F0D3FF10BD0368DB0901D38023E7
:1001F0001943632902D101F00AF910BD732902D114
:1002000001F00DF910BDE32902D101F017F910BD7D
:10021000F32902D101F01AF910BD002010BD1FB55D
:100220000098019900F069FB00F042FB04000020F7
:10023000002103F081F8401C60600020002103F0E1
:1002400091F8E06000F0C8FA1FBD10B5002000F082
:10025000AFFF10BD01F05CFC1146FFF7E0FF02F0BC
:10026000E9FF01F074FC03B4FFF7EFFF03BC01F0FA
:1002700049FC00000748804707480047FEE7FEE7C3
:10028000FEE7FEE7FEE7FEE704480549054A064BA0
:100290007047000011290008C1000008F802002082
:1002A000F8080020F8040020F804002010B500F041
:1002B000FFFA001D10BD00BF8130000070B504467C
:1002C000051F00F0F1FA0068002C1AD0446801E024
:1002D00020466468002C01D0AC42F9D301680A18AA
:1002E000AA4204D12A6805468918016000E04560E9
:1002F00028684119A14205D16168696021684018E8
:10030000286070BD6C6070BD7CB51D4616460C0043
:10031000009001D00019401E084B7B442A466946D4
:100320000190304600F009FE002C054603D06946D6
:10033000002000F015FE28467CBD00004D0C00009A
:1003400070B5044685690068C10601D5302600E015
:100350002026C00707D070BD62683046A16890476C
:10036000206A401C20626D1EF6D570BD70B5044633
:1003700085690078C00707D170BD6268A168202038
:100380009047206A401C20626D1EF6D570BD0000AB
:10039000F7B5002575291068009914A611D000F052
:1003A00015FB002802DA404211A608E0009909680E
:1003B0008A0701D50FA602E0490704D50EA601253C
:1003C00001E000F00CFB009F0024243704E000F063
:1003D00010FF30313955641C0028F8D12B463246C5
:1003E0002146009800F02DFBFEBD0000000000003B
:1003F0002D0000002B00000020000000F3B5044693
:10040000002081B020622046E1688847002872D031
:10041000252802D06268A168ABE0594F00267F44CE
:100420002046E16888472028054608DB312D06D2A2
:10043000781920380078002801D00643F0E7B0078B
:1004400001D5042086430020E0610746A0612A2DE3
:100450000AD0284602F0A6FE002827D0B8000019CE
:10046000303D0090856119E00298BA00121902C867
:10047000916102902046E1688847012F054617D117
:10048000E06900281FDA202086431CE000980A213A
:100490008069484300994019303888612046E168F6
:1004A0008847054602F07EFE0028EFD1012F0AD0D2
:1004B0002E2D08D12046E1688847054620200643B6
:1004C0007F1C022FC3DBA069002803DA4042A06131
:1004D00001200643F00701D0102086436C2D0BD07D
:1004E000682D09D04C2D3CD06A2D38D0742D38D0D1
:1004F0007A2D36D016E040E0E1682F462046884746
:10050000B842054609D16C2F29D001208002E1684C
:10051000064320468847054604E06C2F1DD0FF2087
:1005200001300643002D28D028464138192803D829
:100530000120C00206432035204626602946029A43
:100540001646FFF7FBFD002810D001280BD0F61D42
:10055000F008C0000830029055E74020E1E7802015
:10056000D5E70020D3E7361D02964CE7626828469F
:10057000A1689047206A401C44E7206AFEBD000045
:100580008E370000F8B5074615460E46102000F0DD
:10059000E1F9040009D06760A660E56000F08CF91D
:1005A0000168216004600020F8BD0120F8BD01E071
:1005B00004C0091F0429FBD28B0701D50280801CCF
:1005C000C90700D00270704700290BD0C30702D0C2
:1005D0000270401C491E022904D3830702D5028001
:1005E000801C891EE3E70022EEE70022DFE700001F
:1005F000024670B50A4392072AD11E4DEE0104C887
:1006000008C9541B9443344017D0D0B2D9B2401A11
:100610002106014310D190B299B2401A210401433E
:100620000AD110021902000A090A401A21020143E4
:1006300002D1100E190E401A70BD9A42DFD010BAC6
:1006400019BA884201D9012070BD0020C04370BD95
:1006500002780B78401C491C002A09D09A4207D125
:1006600002780B78401C491C002A01D09A42EFD036
:10067000D01A70BD01010101002203098B422CD365
:10068000030A8B4211D300239C464EE003460B43E2
:100690003CD4002243088B4231D303098B421CD344
:1006A000030A8B4201D394463FE0C3098B4201D336
:1006B000CB01C01A524183098B4201D38B01C01A6E
:1006C000524143098B4201D34B01C01A52410309E5
:1006D0008B4201D30B01C01A5241C3088B4201D394
:1006E000CB00C01A524183088B4201D38B00C01A41
:1006F000524143088B4201D34B00C01A5241411A68
:1007000000D201465241104670475DE0CA0F00D04A
:100710004942031000D34042534000229C46030943
:100720008B422DD3030A8B4212D3FC22890112BAC9
:10073000030A8B420CD3890192118B4208D38901A1
:1007400092118B4204D389013AD0921100E08909B9
:10075000C3098B4201D3CB01C01A524183098B429A
:1007600001D38B01C01A524143098B4201D34B0183
:10077000C01A524103098B4201D30B01C01A5241E6
:10078000C3088B4201D3CB00C01A524183088B426D
:1007900001D38B00C01A5241D9D243088B4201D3F6
:1007A0004B00C01A5241411A00D2014663465241E1
:1007B0005B10104601D34042002B00D549427047E0
:1007C00063465B1000D3404201B50020C046C046DE
:1007D00002BD70477047704770B5064C7C44064DAB
:1007E0007D4403E0206800198047241DAC42F9D104
:1007F00070BD0000283600003036000010B50146FC
:100800009E240002CA15A307002A02D01843002A1A
:1008100004DBA21A002A0CDDD04010BD1206120E15
:1008200001D140004008A21A03D4D0404042002821
:10083000F3DDFF2248001206904201D9002010BDCE
:10084000C817C043584010BD1F22030C02D10F220D
:1008500000041CD0030E01D10002083A030F01D19D
:100860000001121F830F01D18000921E002801DBBE
:100870004000521ED2055118021251181922904000
:1008800004D3491C002801D1490849000846704793
:10089000C10FC90700D04042012292071143D3E79C
:1008A00001218907D0E70000004870479C02002022
:1008B00000487047B402002000487047CC02002076
:1008C0000048704794020020704770477047704797
:1008D00038B504460A4600206946C046C04600288E
:1008E00005D002462046009900F0EBFC012038BDFF
:1008F00010B5012001F000F910BDF8B5C046C046A2
:10090000054600200C461020C0460646A819A04205
:100910000DD9324669460020C046C046070001D1C5
:1009200001F0EAF80098A04200D00546C419FFF78C
:10093000BBFFF61D07460560F008C00046192846B3
:1009400000F0B8FCB44204D031463868A21B00F075
:10095000B8FCF8BD70B50646FFF7A6FF056830463F
:100960000B30C408E400B44201D8002070BD6868B0
:100970002A46002818D00168A14211D30B4621460F
:1009800008318B4208D3436801194B6003681B1B75
:100990000B605160046001E041685160001D70BD52
:1009A000024640680028E6D121462846FFF790FF1E
:1009B0000028DCD170BD10B5FFF782FF006810BDC4
:1009C00010B50446FFF77CFF046010BD09684A05B6
:1009D00001D540B27047C905FCD500B2704709681F
:1009E0004A0501D5C0B27047C905FCD580B2704731
:1009F00070B50C460546012A05D02878800600D53A
:100A0000EA69002302E0012305E05B1C934202D265
:100A1000E05C0028F9D1A869E618C01AA861286A24
:100A2000C01828622846FFF78BFC04E06A6820782B
:100A3000A968641C9047B442F8D32846FFF796FC97
:100A400070BDFFB504460D4681B02430009021688A
:100A5000880604D51022E0699143216000E001205E
:100A6000A84201DD471B00E000270498A1697A191C
:100A70001018081AA0612078C00602D42046FFF79B
:100A80005FFC002608E003986268A168805D9047DB
:100A9000206A401C761C206204988642F3DB207892
:100AA000C0060AD52046FFF74BFC06E06268A16845
:100AB00030209047206A401C206238467F1E002864
:100AC000F4DC07E000986268A168405D9047206A06
:100AD000401C206228466D1E0028F3DC2046FFF7EC
:100AE00045FC2078000602D5022005B0F0BD0120AB
:100AF000FBE711680268006A530501D5087009E038
:100B0000D30501D5088005E0130602D5C21705C13B
:100B100000E00860012070477047FFB50C461E4694
:100B20008FB003CA089009914F007D0D00D16D1E52
:100B3000002108460020C0460321099A8905084083
:100B4000002A03DA8200801840080840800D01283E
:100B50000A9002DD0020C0430A90089807430DD098
:100B6000F048F149281848430714189800281DD068
:100B70007542291E1DDD0A9842421BE01898012883
:100B800002D00020302104E00020F24305E021548F
:100B9000401CB042FBDB30460022189B0021215450
:100BA0000F998B600A60486013B0F0BDBD1B6D1CCF
:100BB000DFE70A9A002900DA69420BA800F04AFC34
:100BC0000BAB07CB03AB07C30899099800F0AEFC49
:100BD0006B4607C30146D5480918002D00910BDD6F
:100BE000D24903980A9A49424018002303A9039066
:100BF000684600F00BFF08E003990A9A00230818E2
:100C000003A90390684600F0ABFE6B4607C30004DF
:100C1000000C03D00020C043410800E01046189AA1
:100C2000002A03D00022009215461EE0751E05D44E
:100C300000F061FB303262556D1EF9D50122084388
:100C4000079602D000227F1C04E02078302801D1D2
:100C500000227F1E002A069787D01EE0112D07DA9A
:100C600000F049FB303262556D1C02460A43F5D153
:100C7000084303D00098002819D00EE00021681E18
:100C800005E0235C625C63542254401E491C81428F
:100C9000F7DBA81B401E07950690079A18990020BD
:100CA000A0540F98079B069A81600CC07CE7112620
:100CB0000020189059E7D21DF0B50D460446D10822
:100CC00093B0C90003C90C900D9102F0FDF90246E2
:100CD0000D98C00F01D02D2007E02068810701D5B5
:100CE0002B2002E04007C00F4001032A0F9001D0E3
:100CF000072A05DB03462946204600F039FB0EE1B2
:100D00002078800601D5E76900E006272846652D92
:100D100004D0662814D0672D69D12DE00020112F52
:100D2000009001DB112300E07B1C0CAA03A910A892
:100D3000FFF7F3FE1199002610987D1C0E9142E0FA
:100D400001203B460CAAC0070B900120009003A98C
:100D500010A8FFF7E2FE119D1298109900260028B6
:100D60000E9501D1781C0D18781B02D446427D1CCB
:100D7000761EE81B00903AE0012F00DA01270020E0
:100D8000112F009001DD112300E03B460CAA03A9BE
:100D900010A8FFF7C2FE11993D46109800260E914B
:100DA000217809070BD40E99A94200DA0D4603A950
:100DB000012D04DD4A19203AD27F302A06D0B842EC
:100DC00001DA011D04DA012100910FE06D1EEFE749
:100DD000002802DC86192D1A03E0411CA94200DD1F
:100DE0000D46801B401C00900120C0070B9020780E
:100DF000000705D40098A84202DB0020C043009001
:100E000069460020C8720B98012102AF0337C90759
:100E1000884225D0022010902B2011900B9800289A
:100E20000BDA40420B902D20119006E00B9800F059
:100E3000E0F930317F1E0B9039701099481E00295F
:100E40001090F3DC0B980028F0D111987F1E3870B9
:100E50002088000501D5452000E065207F1E387000
:100E600001A8C01BC01D0B900F98002800D00120C6
:100E700041190098C01709180B980818A169081A99
:100E8000401EA0612078C00602D42046FFF758FA21
:100E90000F98002805D06268A1689047206A401C1E
:100EA00020622078C00625D52046FFF749FA21E0C8
:100EB000002E07DB0E98B04204DD03A86268805D57
:100EC000A16802E06268A16830209047206A761C21
:100ED000401C20620098401E002800900AD1FFF7B5
:100EE000E7FCC06862680168405CA1689047206ABE
:100EF000401C206228466D1E0028D9DC07E062688D
:100F00003878A1687F1C9047206A401C20620B99AA
:100F1000481E00290B90F2DC2046FFF727FA032039
:100F200042E6000001FCFFFF104D0000E1DFFFFF83
:100F300001694A1C02610878704700B58FB00291C0
:100F400000210591054901937944039111460490CC
:100F50006846FFF753FA0FB000BD0000E5FFFFFF42
:100F60000A681070521C0A6070470CC908399A420E
:100F700002D2531C0B60107070470000F7B5044696
:100F8000154686B02B487844002703C83E4600909B
:100F9000019111E007986A467100415A02A800F0D9
:100FA00085FD411C07D02178890603D5E2693918EF
:100FB00091420ED83F18761C2078800602D5E06951
:100FC000B84206DDAE42E5DB07987100405A0028C2
:100FD000E0D1A069C01BA0612046FFF7B1F9154818
:100FE00078445A3803C800900020019116E041006F
:100FF0006A460798415A02A800F058FD0590401C27
:101000000AD0002505E0626802A8A168405D90470B
:101010006D1C05988542F6D30498401CB04204909C
:10102000E5DB206AC01920622046FFF79FF909B06E
:10103000F0BD00003A2C0000F7B5D21D0025D20803
:1010400015A6D200F52905CA11D0002A05DA00211B
:101050004042914111A60A4608E0009909688B07B1
:1010600001D50FA602E0490701D50EA601251146BC
:10107000009F0024243704E000F03DF930323A5557
:10108000641C02460A43F7D12B463246214600989B
:10109000FFF7D7FCFEBD0000000000002D0000009F
:1010A0002B0000002000000070B50446002124340D
:1010B00008E05507D2086D0F303565545D072A43A7
:1010C000DB08491C15461D43F3D10468002310A218
:1010D000250708D5A40601D4002904D0C46901233A
:1010E0000CA2641EC461FFF7ACFC70BD10B50446D1
:1010F00021461068FFF773FC002302462046FFF7E5
:10110000D3FF10BDD21DD108C9000CC9CCE7000027
:101110000000000030000000F8B50F460188090506
:1011200002D5224C7C4402E0204C7C440E3405461F
:101130000021243508E016071209360FA65D6E540B
:101140001E0732431B09491C16461E43F3D1224693
:1011500004780023240705D5702F06D0002901D07C
:1011600002231132FFF76DFCF8BD01231032F9E7BD
:1011700070B504460D4621461068FFF730FC002389
:10118000024629462046FFF7C7FF70BDD21DD3088F
:10119000DB000CCBC0E730B4036820241268234383
:1011A00003600823C36130BC0023B5E7A42A000014
:1011B000F8B50646FFF780FB0090054615E0002EC7
:1011C00002D0E068B0420FD1206828600098A16882
:1011D0000768606888472046FFF770F80098006845
:1011E000B84202D00098E8E725462C68002CE6D1EA
:1011F000F8BD01468008081A02091018020A1018E2
:10120000020C1018C008820012185200891A01E05E
:10121000401C0A390A29FBD27047000030B5C30DC3
:101220001906214A090E31D0FF292FD000283ADBB8
:1012300001025002014301207D33C34000D249081E
:10124000012080071724091A240649088210234325
:10125000FF252D064C00211A04D4891A02D454000B
:10126000201800E0214652085B19F3D51A220446E3
:10127000944007D382068A4203D18021803088437C
:1012800000E08030C009D905081830BDFF2904D01E
:101290004100FAD0C00FC00730BD410201D0104656
:1012A00030BD0028FCDAFAE70000C07F0048704734
:1012B000940200200021016041608060704710208E
:1012C000704710B50346406801E0034640680028B7
:1012D00001D08842F9D31868C3188B4206D0CB1CC2
:1012E000D808C000001D411A521A0146081D0A60A4
:1012F000FEF7E4FF10BD0B4670B502468907800873
:10130000084319469D08141AA941250908070543F1
:1013100008092C194841250A01060D43010A2C1918
:101320004141200C0D0428430D0C00194D410021B2
:1013300040194D41C00869070843E908840F8D0032
:101340002543840024184D4124196D41121BAB41E3
:1013500007E00925ED432C11521963410024401C7C
:1013600061411C460A250026551BB441F1D270BDCF
:10137000F8B51F46044601230068DB020326014638
:101380001840072A05DB002801D017A506E017A59D
:1013900004E0002801D016A500E016A51020814326
:1013A0002160A069C01E002FA06101D0401EA06175
:1013B0002046FEF7C5FF002F09D038466268A168B5
:1013C0009047206A401C2062C01C206206E0206A10
:1013D000FAE762682878A1686D1C9047761EF8D2FB
:1013E0002046FEF7C3FFF8BD4E414E006E616E0011
:1013F000494E4600696E660010B54369002B02D065
:10140000C046C04601E0FFF7F3FA012010BD127894
:10141000014624310A7000224A700122ECE711686B
:101420000022D243E8E710B54369002B02D0C04642
:10143000C04601E0FFF7A2FD012010BD1288014661
:10144000243182840022C2840122ECE71168002248
:10145000D243E8E7F7B516468AB0334878446C467D
:1014600003467C33C06F5A689B680DC42E4878448D
:10147000763003AC0DC80DC43720C00108183721E1
:101480001B30FFF703F905460C46803D1B3C02D597
:101490006442012000E000200027099010E0E007EE
:1014A0000CD00C2020497843794432464C394118FD
:1014B0006846012300F054FA6B4607C364107F1C92
:1014C000002CECD1184F7F442E3F16E0E80712D0D5
:1014D0002001C0190EC80691089307920068F042D7
:1014E00001D1981908903246012306A903A800F0FB
:1014F00037FA03AB07C36D10641C002DE6D10998C1
:10150000002806D032466946012303A800F07EFA7F
:1015100005E001233246694603A800F021FA0A9B40
:1015200007C30DB0F0BD0000942700000346400043
:101530000A4610B5400D0BD00121C9070F24A402A3
:1015400000191C0364082143540D2143D20207E013
:1015500000210120F2E7D40F490021435200401E30
:101560000029F8DADB0FDB07184310BDFFB50D4685
:10157000144685B04868516801F08EFD00910190D5
:10158000A868A16801F088FD02910390A8686168CD
:1015900001F082FD029A12188242029201D20120C9
:1015A00000E00020019A0B18D2180028019202D006
:1015B0008A4202D903E08A4201D2012000E00020E1
:1015C0000099081800906868A16801F065FD029A0A
:1015D00012188242029201D2012000E00020019AFA
:1015E0000B18D2180028019202D08A4202D903E0D7
:1015F0008A4201D2012000E00020009908180090E2
:101600002868216840004900400849084018FA4904
:10161000471814E001994000C90F08430090019851
:1016200002994000C90F08430190029803994000B5
:10163000C90F08430290039840007F1E0390009852
:101640000028E7DA0898002801D0EC4E00E00026D8
:10165000B74201DA012000E00020002804902AD0DF
:10166000F71BF806C00E15D0029B2021091A039A19
:101670008B401A430392029A019BC2408B401A434B
:101680000292019A009BC2408B4000991A4301923A
:10169000C14000917B110DD06F460320C11A03D5C4
:1016A00000218200B95003E08A008100BA587A50C4
:1016B000401EF3D5374603980299002800D0012038
:1016C000014308980291002808460CD0002800D059
:1016D00001200199019A490508430121D20AC90252
:1016E000D202019200E001210E9B0122D207012BC0
:1016F00002D0002B03D013E0002807D120E0904255
:1017000004D890420CD1019B0B4209D0019B59187F
:10171000019105D10099491C009101D17F1C0092D3
:1017200000280DD0102108460020C046049800284B
:1017300006D00F98002803D0082108460020C04694
:1017400028682168019B009A4840C10F0598C90785
:1017500039430EC009B0F0BDFFB587B0099A0898AB
:1017600008995368926840688968964600220393F6
:1017700017469446089A12685300099A5B08126843
:10178000520052089A1A9E4BD4180A9A002A01D085
:10179000352200E0402206920022012315460492E1
:1017A000DB07059324E0002D05D175460346039E13
:1017B0004D1BB34109D375466646039B491B049DE7
:1017C0009841059B7519AC465F4163463B4308D081
:1017D000059B049EDD0776082E435B08049605935F
:1017E00001E0521E641EC50FED0749184041521C0E
:1017F000069B9A42D7DB002D04D17546039A6B1ADB
:10180000824101D203200CE0039A0B466B40424018
:10181000134303D0014303D0012002E0022000E083
:101820000020614601910021009702910A99002948
:1018300005D0614640020143704B019102E08007F0
:10184000002302909C4201DA012000E00020070002
:101850003AD01A1BD006C00E15D0029D2021019C43
:10186000091AC5408C402543029C8C4000D00124BD
:101870002543019C0295009DC4408D4000992C4356
:101880000194C140009154111DD06D4602210022E7
:1018900002290CD10320001B07E0002804DB86008E
:1018A000AE59002E00D00122401C0328F5DB081B96
:1018B00002D588002A5004E08000285810438A008E
:1018C000A850491EE3D51C460A98002802980CD05F
:1018D000002800D001200199019A490508430121FF
:1018E000D20AC902D202019200E00121109B01221A
:1018F000D207012B02D0002B03D013E0002807D120
:101900001FE0904204D890420CD1019B0B4209D0B9
:10191000019B5918019105D10099491C009101D1F1
:10192000641C009200280CD0102108460020C046FC
:10193000002F06D01198002803D008210846002067
:10194000C04608980999019A009B006809684840B8
:10195000C10F0798C907214382600AC00BB0F0BDD0
:1019600000B585B0019300920A460146002302A803
:10197000FFF7FCFD02A807C805B000BDFFB50A4689
:101980001F4685B00799019301230091014602A8E3
:10199000FFF7ECFD02990398049ECA0F4900D20795
:1019A00000920F22490892028C1A0021002800DBC5
:1019B0000C46450013486D08844214D3079A002A48
:1019C00004DA441E0026104DF64302E004460D469C
:1019D0000E46102108460020C046002F03D00421E7
:1019E00008460020C0462005E90A0843009908433C
:1019F0006905F20A1143ADE602C0FFFF013C000099
:101A0000FF3F0000FF070000FFFFFF7F00B585B02C
:101A1000019300920A460146002302A8FFF79CFEAC
:101A200002A807C8A8E7FFB50A461F4685B0079970
:101A3000019301230091014602A8FFF78DFE029950
:101A40000398049ECA0F4900D20700920F2249084A
:101A500092028C1A0021002800DB0C464500114838
:101A60006D08844214D3079A002A04DA441E002623
:101A70000D4DF64302E004460D460E461021084681
:101A80000020C046002F03D0042108460020C04695
:101A90002005E90A0843009908436905F20A114341
:101AA00058E60000FF070000FFFFFF7F70B51646F5
:101AB0000C460546FEF7FAFB0368FF200230C05CC7
:101AC000012807D0FF2C0ED8185D00280BD001206C
:101AD0002C7070BDFF333246214608331868C31896
:101AE0002846984770BD0020C04370BD10B500283F
:101AF00001D000F007F810BD10B500F04BF8FFF76B
:101B0000F5FF10BD01491820ABBEFEE7260002001C
:101B10007546FFF7CBFBAE46050069465346C00845
:101B2000C000854618B020B5FEF7AEFB60BC0027AC
:101B30004908B6460026C0C5C0C5C0C5C0C5C0C599
:101B4000C0C5C0C5C0C5403D49008D46704710B5F1
:101B50000446C046C0462046FEF785FB10BD70B562
:101B600005460C460A2000E06D1C00F03BF8002DF5
:101B700006D028780028F7D102E0641C00F032F883
:101B8000002C02D020780028F7D10A2000F02AF893
:101B900070BD000010B5012805D0002103A0FFF79B
:101BA000DEFF012010BD09A1F8E7000053494752AC
:101BB000544D454D3A204F7574206F66206865611D
:101BC00070206D656D6F7279000000003A204865E5
:101BD0006170206D656D6F727920636F72727570C0
:101BE0007465640008B5694608700320ABBE08BD83
:101BF00070470000024800210170417070470000EA
:101C00000000002070B500F03BFE0D487D21C900AA
:101C10000068FEF731FD411E0A480025ED43814270
:101C200009D8094C61610321284601F063FA0020BC
:101C3000A061072020610021284601F05BFA70BDF9
:101C400010000020FFFFFF0000E000E010B50220C0
:101C500000F056FA00280BD0064902200861BFF3B5
:101C60004F8F06490448C860BFF34F8F00BFFDE7A0
:101C700010BD0000001802400400FA0500ED00E06D
:101C800070B5042000F046FA0C4D0D4C002807D02A
:101C9000A068002800D0804729680420814329607B
:101CA000082000F037FA002807D0E068002800D0AC
:101CB0008047296808208143296070BD8018024050
:101CC0005402002010B5102000F01AFA002804D0A9
:101CD00002491020086100F02DFE10BD00180240DE
:101CE00008A1114801F0ABF910A10F4801F0A7F9C4
:101CF00001201649C0050860BFF34F8FBFF36F8FF7
:101D000001F070F84932432053616C766520436FCF
:101D10006D6D756E69636174696F6E204552524FC7
:101D20005220212121212100B8010020506C656141
:101D300073652072657374617274207468652073B2
:101D4000797374656D2021212121210080E100E05B
:101D500004A10D4801F073F90CA10B4801F06FF9D3
:101D600001F040F85A543735343820436F6D6D75A3
:101D70006E69636174696F6E204552524F52202123
:101D80002121212100000000B8010020506C656174
:101D90007365207265737461727420746865207352
:101DA000797374656D20212121212100F0B587B060
:101DB0000F4605461E461446182101A8FEF715FCDD
:101DC00005200007854201D1012012E0214885420B
:101DD00001D102200DE02048854201D1042008E015
:101DE0001E48854201D1082003E01D4885422ED1BE
:101DF00020200021002C0ED00122012C0DD0022326
:101E0000022C0CD0032C0DD0052C0CD0062C0CD0A1
:101E1000072C0DD00EE002910BE0029106E0049336
:101E2000029107E00322029203E00292049201E091
:101E3000029304910B49019703964A6B02434A634C
:101E4000496B0140009101A9284600F06DF907B0E7
:101E5000F0BD00000004005000080050000C0050CD
:101E60000014005000100240FEE7000010B51848B2
:101E700081690A0706D5C16908221143C161FFF7CC
:101E8000B9FE10BD4B070122002B05DA8169114311
:101E9000816100F029FC10BD8B0705D581691143D4
:101EA000816100F0D5FC10BD8A0606D5C1692022EB
:101EB0001143C16100F00CFC10BDC90604D5C16915
:101EC00010221143C16110BDFFF70AFF10BD0000D1
:101ED00000540040FFB50446480683B0000E04904D
:101EE0001D4616460020284F07E0401CB84204D18A
:101EF000FFF72EFF012007B0F0BDA1690904C90F4B
:101F0000F3D100202149024601910090022320468E
:101F1000049900F05FF9A069C007C00FFBD0F0B2D0
:101F2000A062A069C007C00FFBD0300AA0620020E9
:101F300005E0401CB84202D10120A061D8E7A169A8
:101F4000C907C90FF5D0A0694006C00FFBD001201A
:101F50000F49400601910090002220460C9B0499F5
:101F600000F038F906E0A0694007C00F02D0606AAF
:101F700028706D1CA0698006C00FF4D0E069202194
:101F80000843E0610020B6E7A8610000002000805F
:101F900000240080FFB50446480683B0010E1746B2
:101FA00000250C9E03E025486D1C854217D0A069D2
:101FB0000004C00FF7D1224A0192100300900022C2
:101FC0002046B31C00F006F9A069C007C00FFBD083
:101FD000F8B2A062194807E06D1C854204D1FFF7F2
:101FE000B7FE012007B0F0BDA169C907C90FF3D042
:101FF000390AA162002105E0491C814202D1012079
:10200000A061ECE7A269D207D20FF5D0002008E06A
:102010000699095CA162A169C907C90FFBD0401CE0
:10202000C0B2B042F4D3A0698006C00FFBD0E06913
:1020300020210843E0610020D4E70000A8610000EF
:102040000020008008B50449CA6B0243CA63C96B0B
:102050000140009108BD00000010024010B5047955
:10206000002326490268002C41D0002A3DD0447943
:10207000002C12D0012C18D0022C19D00123827907
:10208000002A32D01D498039012A19D0022A20D0D5
:10209000032A22D00220034327E04C6894434C607B
:1020A00002680C6814430C60E9E70C68944301E093
:1020B0000C6814430C6002684C6814434C60DEE703
:1020C00002684C6894434C6000680A6802430A60E6
:1020D0000BE002680C68944302E002680C68144349
:1020E0000C6000684A6802434A60184610BD0C68DC
:1020F00094430C6000684A688243F5E78018024008
:1021000003490969884301D00020704701207047C6
:102110000018024003490968884301D00020704735
:102120000120704780180240F0B500244CE00123E4
:10213000A3401A4047D04B68012B01D0022B0FD18E
:102140008E688568134653435F00DF19BD437343B0
:102150001D438560CB684568534395431D434560E7
:102160000F69C668134653435D005D19AE435F4374
:102170003E43C6604E68022E1FD1FF2A0ED8174676
:102180004A69066A94461A467A437A431701BF1A87
:10219000BE4367467A43164306620EE0160A32468D
:1021A00072434F6972437243BC461601B71A466ABE
:1021B000BE4367467A43164346624A6806685343FD
:1021C000AE431E430660641C0A681346E340AED16A
:1021D0000020F0BDF0B5069C4568660D11431A0459
:1021E0001143044F059A3E431143B54321430D4328
:1021F0004560F0BDFF7BFF0330B502685208520016
:1022000002608C68CA6803681F252D021202AB4366
:102210002243134303604A680261026801231A43A0
:10222000026083680122D203934383608C690B6947
:1022300085682343ED0AED021D4385600B69002B81
:1022400002D08368134383600C68036803252D055F
:10225000AB43234303604B69416891431943416099
:10226000002030BD08B504494A6B02434A63496BFC
:102270000140009108BD00000010024010B57D2112
:10228000C900FEF7F9F90449401E48610020886141
:102290000520086110BD000000E000E010B5044614
:1022A00000F0E4F9206000F0C1F9606000F0CEF9C0
:1022B000A06010BD10B50024032823D11248406946
:1022C00003218007800F09040843C94340180AD03E
:1022D00001280CD0022810D000F0C8F900F0A6F9AF
:1022E00000F0B4F901E000F0C1F904460AE000F0A2
:1022F0000FF8012806D1054C04E000F011F8012880
:1023000000D1C403204610BD401002400024F40058
:10231000024800684005C00F7047000000100240EE
:102320000248C0698007C00F70470000401002409B
:102330000248C06870210840704700000010024049
:102340000248C0688007800F7047000000100240FC
:102350000248C0684004400E704700000010024070
:10236000014908607047000010000020FEB50446D7
:1023700000680D46012738405CD12969A868EA69E0
:10238000084369691143084321682B4A11400843F7
:102390002060E9686068032212039043084360608C
:1023A000A969A068121190430843A06023488442A1
:1023B00003D10320FFF77EFF06E02148844232D19B
:1023C0006846FFF76BFF029800282CD06E68002E3D
:1023D00029D029680027EA690B2924D80123DB03C7
:1023E0009A4213D109068A0D16498958FEF744F915
:1023F0004000710840183146FEF73EF981B212489C
:1024000008400907490F0143E1600CE009068A0D05
:102410000C498958FEF730F9710840183146FEF72B
:102420002BF980B2E0602888E16A80B209090901CD
:102430000143E1623846FEBDF369FFEF0038014019
:1024400000440040A0330008F0FF0000F0B58DB05C
:102450001C2106A8FEF7C9F818216846FEF7C5F842
:102460003149486903221203904300254861022044
:10247000FFF7F8FE4020022600900124062701966F
:10248000029503AAB0C269462848FFF74DFE802096
:1024900000900196029503AAB0C269462348FFF74F
:1024A00043FE6005FFF7CEFD214801680902090AD5
:1024B00001602049E00508601F4C20683104884312
:1024C00020601E480790902006950A90089509956F
:1024D0000B9506A90C952046FFF78EFE6068310625
:1024E00008436060E06816490840E060E068E11376
:1024F0008843E06020680901884320602068082143
:1025000008432060206810210843206020682021B3
:10251000084320602068042108432060206830437D
:1025200020600DB0F0BD00004010024000040050DB
:1025300014E400E000E100E0005400406C21C00021
:1025400001F8FFFFF0B58DB01C2106A8FEF74DF88D
:1025500018216846FEF749F80120FFF783FE0120A5
:102560000627C002059700240090022501260520B9
:10257000029469460396019504940007FFF7D4FD81
:10258000E80205970090052002946946039601959C
:1025900004940007FFF7C8FD6805FFF753FD1248D4
:1025A00007900694089409940B940C9420200F4CE7
:1025B0000A9006A92046FFF71FFE60682906084317
:1025C0006060E0680A490840E060E068E113884321
:1025D000E0602068090188432060206889108843F2
:1025E00020600DB0F0BD00006C21C000005800401C
:1025F00001F8FFFF0848074901600849016001210F
:10260000416007498160C1684907FCD10549016003
:1026100070470000CCCC0000003000405555000051
:10262000FF0F0000AAAA0000FEE77047054989686D
:102630008A093C210A400A400349895CC906C90E3F
:10264000C840704700100240D0330008054989682F
:10265000054A4904490F8900515CC906C90EC840A2
:1026600070470000001002401034000870B5154E8D
:10267000B06838210840144C082809D0650010289B
:1026800008D0306801218004400F8140284616E0C0
:10269000204670BDFFF754FE022801D0032800D069
:1026A0002C46F068450F6D1CFFF742FE0609761CAC
:1026B000FFF74EFE60433146FDF7DEFF2946FDF78A
:1026C000DBFF70BD0010024000127A00704700006E
:1026D00010B504480078102803D10121152000F01E
:1026E00099FD10BD8A000020F0B55648426A574E49
:1026F0005549307807250A54401C307052480F78ED
:10270000082100231030AE2F2DD014DC022F36D03C
:102710000B2F3AD04C4A2032D47B0F2F25D0102FCC
:1027200020D100214354491C1029FBDB517ACB07EF
:1027300035D0A12334E08222E12F1BD0E22F2AD012
:10274000E32F2AD0F62F0DD1552202705622427067
:1027500032228270C370037143718371C37111227D
:1027600002724172F0BD262102E0E20700D0102182
:102770000170F0BD042101704270857003E05421A6
:10278000017043708370C370F0BD132101700C2180
:1027900041708370F0BD0270F0BD0570F0BD212363
:1027A0000370C90901D0B1210170274903271A39E3
:1027B0008B7843700B7883704B78C370137A4371B6
:1027C0009378052B06D0012B06D0032B13D0072BB3
:1027D00013D002E0C57100E0C7715D081D43ED072D
:1027E000ED0F5B07DB0F1D4301D001238371F378ED
:1027F000012B04D005E00525ECE70125EAE7877108
:102800008773B378012B02D1042383718373E507A7
:102810002223002D02D0A225057200E00372E409F4
:1028200001D0B22404721478092C02D1212404703E
:102830000372CB7943724B7983728979C172917B30
:102840004173F0BD005400408A00002000000020C9
:10285000054A04495078095C401C50700348816265
:10286000704700009A000020000000200054004043
:1028700002480168491C01607047000014000020F4
:1028800070B51F4DA968382001401E481E4C08290C
:102890000DD0430010291BD0182913D0202914D0A3
:1028A000286801218004400F8140184624E0206000
:1028B000A8683C21800908401449085C2168C1408F
:1028C000216070BD7D200002F1E70120C003EEE72A
:1028D000E9688A07E968920F4906490F491C032AEB
:1028E00000D01846FDF7C8FE0146E8684004400ED7
:1028F0004843E968490F491CFDF7BEFED7E70000D1
:102900000010024000127A0010000020D0330008AE
:102910007047000010B5024800F08EFA10BD0000AC
:102920001C01002010B5024800F086FA10BD00001E
:10293000B8010020F8B51020354C0090334B8022B0
:1029400020212046FFF7C6FA322000F03DFC00208F
:1029500003460090032220212046FFF71BFB2B4853
:102960000146858830390D80C4884C8043890B81AD
:1029700082894A8106790A390E7086794E704779C4
:10298000C6793F0736013F0F3E438E70867A4E71FF
:10299000067B8E71C77A467B3F0736013F0F3E4369
:1029A000CE71C17B1B4ECF0725D0407A014348072B
:1029B00026D5E81A00D5404201B2B180A01A00D550
:1029C000404200B2F080494340430818FDF760FFE1
:1029D00000F09CFCFDF712FF00B230810A21715E0D
:1029E000002906DD0122884200DAB270884200DD4B
:1029F000F270708104E0002030817081F070B0705E
:102A00000021152000F006FCF8BD0000AA000020FF
:102A10000058004000000020F8B501210F2000F010
:102A2000F9FB022000F0C6FB224C0127277000258D
:102A30006570022603222346920320211E48009639
:102A4000FFF7A8FA23463322103B920220211A48AE
:102A50000096FFF73FFA204610380288174818A161
:102A600082811C4800F0D6FA00231B4A202112481C
:102A70000095FFF78FFA2770174A65702346921E5C
:102A800020210D480096FFF785FA022000F092FB06
:102A90002770114A65702346D21E202106480096F1
:102AA000FFF778FA322000F085FB0CA1094800F00E
:102AB000C6FAF8BDBA00002000580040000000200F
:102AC0006368697020636F6465203D203078255805
:102AD0000A000000B801002004C000005A54373535
:102AE000343820696E697469616C2073756363653D
:102AF00065640000F0B589B000240694182168468A
:102B00000794FDF772FD042000F08AF9202000F000
:102B100087F9012000F084F9022000F081F90121F9
:102B2000C904002000F06CF90121084600F068F9A2
:102B3000022701266846069706774477877706A816
:102B4000FFF78CFA1020069068460677447787775F
:102B500006A8FFF783FA052000220221000700F0F3
:102B6000C5F800221021534800F0C0F805200022CB
:102B70000221000700F0B0F8002210214D4800F0BB
:102B8000ABF80121052000F00BF9052000F098F8C2
:102B90000121072000F004F9072000F091F8B003AC
:102BA000032500906946019504944348FFF7BCFA59
:102BB000F00300906946019504943F48FFF7B4FA8A
:102BC000042000906946019504943C48FFF7ACFA54
:102BD000052069460007009601950494FFF7A4FAC2
:102BE0001020009005206946019504940007FFF726
:102BF0009BFA202000900520694601950494000767
:102C0000FFF792FA40200090052069460195049450
:102C10000007FFF789FA802000900520694601959A
:102C200004940007FFF780FA694622480096019550
:102C30000494FFF779FA69461E48009701950494B9
:102C4000FFF772FA370205206946000700970195E1
:102C50000494FFF769FA40200090694601950494B6
:102C60001548FFF761FAF0030090052002940394E1
:102C70006946019604940007FFF756FA0820009071
:102C80006946019504940B48FFF74EFA2020009006
:102C9000029403946946019604940648FFF744FAA7
:102CA00069460448009701950494FFF73DFA09B07E
:102CB000F0BD000000040050000800500014005057
:102CC000002805DBC106C90E0120884001490860C3
:102CD0007047000000E100E010B5036849434C0074
:102CE0000C19A34351430B43036010BD10B5C368D7
:102CF00049434C000C19A34351430B43C36010BD1F
:102D000010B5224802210268D208D2000A430260AC
:102D100001684907490F0229FAD11D480168821547
:102D20001143016001684905C90FFBD01949C26808
:102D3000194B1A401143C160016801221206114368
:102D40000160C16812011143C16001688901C90FA6
:102D5000FBD081680F2212029143816082680221B8
:102D6000D208D2000A4382603822816811401029BB
:102D7000FBD181680722120391438160074C2046F2
:102D8000FFF77CFA2046FFF7EBFA10BD0020024067
:102D900000100240020800208C80FF1F0090D0032A
:102DA0008307FF22DB0E9A408907090E994000280D
:102DB00008DB830809489B001B18186890430843E8
:102DC000186070470007000F0838830804489B000C
:102DD0001B18D86990430843D861704700E400E0AD
:102DE00000ED00E0BFF34F8F04490348C860BFF314
:102DF0004F8F00BFFDE700000400FA0500ED00E082
:102E00008A07130F054A10B59B181A6E090C072480
:102E10008C40A243884002431A6610BD001802404D
:102E200008B504494A6B02434A63496B014000916B
:102E300008BD00000010024030B40169CA69920662
:102E4000D20F16D00A689206D20F12D0496ACAB2BF
:102E5000018B438B491C4906490E8B4204D0048BDD
:102E600003461C33E25401834069002801D030BC82
:102E7000004730BC704710B5002200F001F810BDCB
:102E800010B5022300F002F810BD0000FFB50546A2
:102E9000454F0669454893B0BE420ED14115052203
:102EA000424C031512074E01403427683743276010
:102EB0002468344008941B240EE03D4FBE420BD1E1
:102EC0000522042108231207C66BCC032643C663E0
:102ED000C66B26401C240896476B01263743476380
:102EE000406B194330401290022003900020029161
:102EF00004900590069002A907961046FFF714F972
:102F00001698FF218007000E002C0CDBA308294A2D
:102F10009B009F183B68A207D20E91408B439040C4
:102F200003433B600EE02207120F083A9308224A3F
:102F30009B009F18FA69A307DB0E99408A439840CB
:102F40000243FA61002C03DB30461C49A0400860B4
:102F5000002014990A9109900C210B900E910C906D
:102F60000D900F90109009A92869FFF7FFF92869C3
:102F700041680922D2029143416081682A2291432B
:102F80008160EFF31080012282F3108829690A68BA
:102F900020231A430A6080F31088286901683143AE
:102FA000016017B0F0BD0000003801400010024081
:102FB0000044004000E400E000ED00E000E100E03B
:102FC0000069C2695206D20FFBD0816201207047AE
:102FD00000227D23DB0083604260024B036042617C
:102FE00001617047903C000802685268104702680F
:102FF0001268104770B50C460646002505E030689B
:10300000641C0268304690476D1C21780029F6D177
:10301000284670BD0FB430B5A1B0054626AB80215F
:103020006846259AFDF770F9044669462846FFF779
:10303000DBFF204621B030BC08BC04B0184770B597
:103040000546FFF7D1FF0446284600F002F80019B4
:1030500070BD70B505460D21FFF7C9FF04460A2172
:103060002846FFF7C4FF001970BD000010B5044CDE
:1030700004600446403423756175A27510BD0000DC
:10308000B43C0008034901600022014640314A7502
:103090008A757047B43C0008F8B5040C8BB226461C
:1030A00082B25E43104658430D0C370C36040021A3
:1030B0008019164679416E43370C3604801926462E
:1030C00079416E438919F8BD4900CA0202431000D4
:1030D00000D004204A0D01D001221043044A490DBA
:1030E000914201D102210843012800D105207047F7
:1030F000FF0700008307FF22DB0E9A408907090EB5
:103100009940002808DB830809489B001B181868B1
:1031100090430843186070470007000F0838830881
:1031200004489B001B18D86990430843D861704736
:1031300000E400E000ED00E000B505490548FFF7B8
:1031400047FF044804499C30FFF742FF00BD0000E0
:10315000003801401C0100200044004010B500234D
:103160000C220B210348FFF781FF034A0349FDF7B7
:1031700009FA10BDC40000200000000885300008D6
:1031800010B500230C220B210348FFF76FFF034A01
:103190000349FDF7F7F910BD1800002000000008F2
:1031A0008530000830380A2801D2012070470020FD
:1031B0007047000003490A6810180A688242FCD36D
:1031C0007047000014000020F8B505460F480024A1
:1031D00000680D490090FDF74FFA68430C49074617
:1031E00088690B498D69461B002E01DDA41906E094
:1031F0007D21C9000098FDF73FFA80190419BC42EF
:1032000001D82846EDE7F8BD40420F00100000202D
:1032100000E000E0602808D2054A142358438318D0
:1032200000299989105801D08161704781627047E7
:103230003034000808B51D48012102680A430260C5
:10324000006808400090194809074038C26B0A43DB
:10325000C263C06B08400090FFF752FDFEF7D2FC3E
:103260000220FFF7DDFD124C012220212046FFF74E
:1032700033FD2020A061FFF7E9F8FFF763F9E121B2
:1032800049020C48FFF7F7FD0BA10A48FFF7D7FEEC
:10329000FFF7B0F905210F2000F01CF8FFF7BCFB89
:1032A000FFF728FC09490A480160FDE74010024089
:1032B00000040050B801002053657269616C2070F1
:1032C00072696E74696E672E2E2E0000AAAA000025
:1032D0000030004070B560280ED208290CD00A4C8E
:1032E000142242431319042907D09D89A0580A4685
:1032F00003232946FEF75AFD70BD1969491CFBD00E
:103300000321FFF7E7FF70BD3034000870B50546B4
:10331000FDF784FF41000446FF204908C005411A1B
:10332000C90F07D069004908401AC00F02D1012017
:10333000FDF746FB204670BD10B500290AD008787D
:10334000002807D005487844FDF752F9002801D03D
:10335000002010BD0248784410BD0000960900000E
:103360008E09000010B500290AD00878002807D07F
:1033700005487844FDF73CF9002801D0002010BD35
:103380000248784410BD00007A0A0000720A00006A
:1033900003B402487844844603BC60471FD9FFFF4A
:1033A0000100000002000000040000000600000010
:1033B000080000000A0000000C00000010000000DF
:1033C000200000004000000080000000000100001C
:1033D00000000000000000000000000000000000ED
:1033E00000000000000000000000000000000000DD
:1033F00001000000020000000300000004000000C3
:10340000060000000700000008000000090000009E
:1034100000000000000000000000000000000000AC
:103420000100000002000000030000000400000092
:103430000000005000000040002401400100010095
:103440000000000000000050000000400024014087
:1034500002000200000000040000005000000040D4
:103460000024014004000300000000080000005098
:103470000000004000240140080004000000000C8F
:103480000000005000200040002401401000010016
:103490000000001000000050000000400024014027
:1034A0002000010000000014000000500004004053
:1034B00000240140400001000000001800000050FE
:1034C0000004004000240140800002000000001CB5
:1034D00000000050002C014000000000000101002D
:1034E000FFFFFFFF00000050002C01400000000023
:1034F00000020200FFFFFFFF00000050002C01400F
:103500000000000000040300FFFFFFFF0000005068
:10351000002C01400000000000080400FFFFFFFF36
:10352000000000500000000000000000001000003B
:10353000FFFFFFFF0000005000000000000000003F
:1035400000200000FFFFFFFF00000050000000000F
:103550000000000000400000FFFFFFFF00000050DF
:10356000000000000000000000800000FFFFFFFFDF
:10357000000400500004004000240140010003004A
:10358000000000000004005000040040002401403E
:1035900002000400000000000004005000000000D1
:1035A0000000000004000000FFFFFFFF00040050C7
:1035B000000000000000000008000000FFFFFFFF07
:1035C0000004005000000000000000001000000097
:1035D000FFFFFFFF0004005000000000000000009B
:1035E00020000000FFFFFFFF00040050000000006B
:1035F0000000000040000100FFFFFFFF000400503A
:10360000000000000000000080000200FFFFFFFF3C
:103610000004005000000000000000000001030052
:10362000FFFFFFFF0004005000000000000000004A
:1036300000020400FFFFFFFF000400500000000034
:103640000000000000040000FFFFFFFF0004005026
:10365000000000000000000000080000FFFFFFFF66
:1036600000040050000000000000000000100000F6
:10367000FFFFFFFF000400500000000000000000FA
:1036800000200000FFFFFFFF0004005000000000CA
:103690000000000000400000FFFFFFFF000400509A
:1036A000000000000000000000800000FFFFFFFF9E
:1036B000000800500000000000240140010000004C
:1036C000000000000008005000000000002401403D
:1036D0000200000000000000000800500000000090
:1036E0000024014004000000000000000008005019
:1036F000000000000024014008000000000000005D
:1037000000080050000000000024014010000000EC
:1037100000000000000800500000000000240140EC
:103720002000000000000000000800500000000021
:103730000000000040000100FFFFFFFF00080050F4
:10374000000000000000000080000200FFFFFFFFFB
:10375000000800500000000000000000000103000D
:10376000FFFFFFFF00080050000000000000000005
:1037700000020400FFFFFFFF0008005000000000EF
:103780000000000000040000FFFFFFFF00080050E1
:10379000000000000000000000080000FFFFFFFF25
:1037A00000080050000000000000000000100000B1
:1037B000FFFFFFFF000800500000000000000000B5
:1037C00000200000FFFFFFFF000800500000000085
:1037D0000000000000400000FFFFFFFF0008005055
:1037E000000000000000000000800000FFFFFFFF5D
:1037F000000C00500000000000000000010000006C
:10380000FFFFFFFF000C0050000000000000000060
:1038100002000000FFFFFFFF000C0050000000004E
:103820000000000004000000FFFFFFFF000C00503C
:10383000000000000000000008000000FFFFFFFF84
:10384000000C00500000000000000000100000000C
:10385000FFFFFFFF000C0050000000000000000010
:1038600020000000FFFFFFFF000C005000000000E0
:103870000000000040000000FFFFFFFF000C0050B0
:10388000000000000000000080000000FFFFFFFFBC
:10389000000C0050000000000000000000010000CB
:1038A000FFFFFFFF000C00500000000000000000C0
:1038B00000020000FFFFFFFF000C005000000000AE
:1038C0000000000000040000FFFFFFFF000C00509C
:1038D000000000000000000000080000FFFFFFFFE4
:1038E000000C00500000000000000000001000006C
:1038F000FFFFFFFF000C0050000000000000000070
:1039000000200000FFFFFFFF000C0050000000003F
:103910000000000000400000FFFFFFFF000C00500F
:10392000000000000000000000800000FFFFFFFF1B
:103930000014005000000000000000000100000022
:10394000FFFFFFFF00140050000000000000000017
:1039500002000000FFFFFFFF001400500000000005
:103960000000000004000000FFFFFFFF00140050F3
:10397000000000000000000008000000FFFFFFFF43
:1039800000140050000000000000000010000000C3
:10399000FFFFFFFF001400500000000000000000C7
:1039A00020000000FFFFFFFF001400500000000097
:1039B0000000000040000000000000000014005063
:1039C0000000000000000000800000000000000077
:1039D0000014005000000000000000000001000082
:1039E0000000000000140050000000000000000073
:1039F0000002000000000000001400500000000061
:103A0000000000000004000000000000001400504E
:103A1000000000000000000000080000FFFFFFFFA2
:103A20000014005000000000000000000010000022
:103A3000FFFFFFFF00140050000000000000000026
:103A400000200000FFFFFFFF0014005000000000F6
:103A50000000000000400000FFFFFFFF00140050C6
:103A6000000000000000000000800000FFFFFFFFDA
:103A70000000000000000000000000000000000046
:103A80000000000000000000000000000000000036
:103A90000000000000000000000000000000000026
:103AA0000000000000000000000000000000000016
:103AB0000000000000000000000000000000000006
:103AC00000000000000000000000000000000000F6
:103AD00000000000000000000000000000000000E6
:103AE00000000000000000000000000000000000D6
:103AF00000000000000000000000000000000000C6
:103B000000000000000000000000000000000000B5
:103B100000000000000000000000000000000000A5
:103B20000000000000000000000000000000000095
:103B30000000000000000000000000000000000085
:103B40000000000000000000000000000000000075
:103B50000000000000000000000000000000000065
:103B60000000000000000000000000000000000055
:103B70000000000000000000000000000000000045
:103B80000000000000000000000000000000000035
:103B90000000000000000000000000000000000025
:103BA0000000000000000000000000000000000015
:103BB00004000008000000000000000200010000F6
:103BC000100000000000000000000000303132331F
:103BD0003435363738394142434445464030580041
:103BE0003031323334353637383961626364656673
:103BF0004030780002400000000000A000000000FB
:103C000005400000000000C8000000000C4000005B
:103C10000000409C00000000194000000020BCBED5
:103C20000000000034400000BFC91B8E00000004EB
:103C3000B5400000504BCFD06607E2CF0100000036
:103C40006C4100003E8251AADFEEA7340100000063
:103C5000D9420000DCB5A0E23A301F97FFFFFFFF1A
:103C6000B4450000FD25A0C8E9A3C14FFFFFFFFF39
:103C7000FF3F00000000008000000000FF3F000048
:103C800000000080000000000000000000000000B4
:103C9000C12F0008F52F0008000000000000000000
:103CA0000000000000000000000000000000000014
:103CB000000000000000000000000000143E0008AA
:103CC0000000002018000000040100082C3E00083D
:103CD00018000020E008000020010008100100008A
:103CE00043000000F8FFFFFF0040404040404040DC
:103CF00040404141414141404040404040404040BF
:103D00004040404040404040400502020202020262
:103D100002020202020202020220202020202020B1
:103D200020202002020202020202909090909090C5
:103D30001010101010101010101010101010101083
:103D400010101010020202020202888888888888F7
:103D500008080808080808080808080808080808E3
:103D600008080808020202024000000000000000EB
:103D70000000000000000000000000000000000043
:103D80000000000000000000000000000000000033
:103D90000000000000000000000000000000000023
:103DA0000000000000000000000000000000000013
:103DB0000000000000000000000000000000000003
:103DC00000000000000000000000000000000000F3
:103DD00000000000000000000000000000000000E3
:103DE0000000000000000000000000001C000000B7
:103DF00043000000F8FFFFFF0C0000000E00000071
:103E00000F0000002E00000079F3FFFF51F3FFFFC9
:103E100029F3FFFF00000000000000000000000088
:0C3E2000000000000024F400000000007E
:04000005080000C12E
:00000001FF
