:020000040800F2
:100000003807002075010008410E0008A10600080D
:1000100000000000000000000000000000000000E0
:10002000000000000000000000000000E50E0008D5
:100030000000000000000000430E0008311000081E
:100040008701000887010008870100088701000870
:100050008701000887010008870100088701000860
:1000600000000000870100088701000887010008E0
:100070008701000887010008870100088701000840
:100080008701000887010008870100088701000830
:10009000000000008701000887010008A50600088D
:1000A0008701000887010008870100088701000810
:1000B0008701000887010008000000000000000020
:1000C00000F002F800F047F80CA030C808382418F7
:1000D0002D18A246671EAB4654465D46AC4201D180
:1000E00000F039F87E460F3E0FCCB646012633426B
:1000F00000D0FB1AA246AB46334318473811000024
:1001000058110000103A02D378C878C1FAD85207C3
:1001100001D330C830C101D504680C6070470000BD
:100120000023002400250026103A01D378C1FBD813
:10013000520700D330C100D50B6070471FB500983F
:10014000019900F0A2F900F017F91FBD10B50020C9
:1001500000F059F910BD00F0FFF91146FFF7EEFF6E
:1001600000F0ECFF00F031FA03B4FFF7EFFF03BC3F
:1001700000F0ECF90748804707480047FEE7FEE734
:10018000FEE7FEE7FEE7FEE704480549054A064BA1
:1001900070470000E9100008C10000083801002085
:1001A000380700203803002038030020F8B5074640
:1001B00015460E46102000F0F5F8040009D06760DF
:1001C000A660E56000F0EAF80168216004600020A4
:1001D000F8BD0120F8BD01E004C0091F0429FBD2CD
:1001E0008B0701D50280801CC90700D002707047C0
:1001F00000290BD0C30702D00270401C491E0229FF
:1002000004D3830702D50280801C891EE3E7002205
:10021000EEE70022DFE7002203098B422CD3030A1A
:100220008B4211D300239C464EE003460B433CD443
:10023000002243088B4231D303098B421CD3030AAB
:100240008B4201D394463FE0C3098B4201D3CB01DB
:10025000C01A524183098B4201D38B01C01A52410B
:1002600043098B4201D34B01C01A524103098B420F
:1002700001D30B01C01A5241C3088B4201D3CB00FA
:10028000C01A524183088B4201D38B00C01A5241DD
:1002900043088B4201D34B00C01A5241411A00D28D
:1002A00001465241104670475DE0CA0F00D04942F6
:1002B000031000D34042534000229C4603098B4266
:1002C0002DD3030A8B4212D3FC22890112BA030AEE
:1002D0008B420CD3890192118B4208D38901921170
:1002E0008B4204D389013AD0921100E08909C309F5
:1002F0008B4201D3CB01C01A524183098B4201D3F7
:100300008B01C01A524143098B4201D34B01C01AE1
:10031000524103098B4201D30B01C01A5241C30859
:100320008B4201D3CB00C01A524183088B4201D3C8
:100330008B00C01A5241D9D243088B4201D34B00E3
:10034000C01A5241411A00D20146634652415B1025
:10035000104601D34042002B00D549427047634606
:100360005B1000D3404201B50020C046C04602BD2C
:10037000704770477047000070B5064C7C44064DCE
:100380007D4403E0206800198047241DAC42F9D168
:1003900070BD0000D40E0000D40E0000004870476D
:1003A0001001002070B5064600F052F8056830468E
:1003B0000B30C408E400B44201D8002070BD686866
:1003C0002A46002818D00168A14211D30B462146C5
:1003D00008318B4208D3436801194B6003681B1B2B
:1003E0000B605160046001E041685160001D70BD08
:1003F000024640680028E6D12146284600F030F841
:100400000028DCD170BDF8B50646FFF7C7FF0090A5
:10041000054615E0002E02D0E068B0420FD12068FA
:1004200028600098A168076860688847204600F047
:1004300060F800980068B84202D00098E8E72546C6
:100440002C68002CE6D1F8BD00487047D800002089
:1004500000487047E00000207047704770477047C1
:1004600038B504460A4600206946C046C046002802
:1004700005D002462046009900F08DF8012038BDD5
:1004800010B5012000F0C3F810BDF8B5C046C04655
:10049000054600200C461020C0460646A819A0427A
:1004A0000DD9324669460020C046C046070001D13A
:1004B00000F0ADF80098A04200D00546C419FFF73F
:1004C000C7FFF61D07460560F008C000461928461C
:1004D00000F008F8B44204D031463868A21B00F09E
:1004E0005AF8F8BD0021016041608060704710201B
:1004F000704770B50446051FFFF7AAFF0068002C7F
:100500001AD0446801E020466468002C01D0AC4257
:10051000F9D301680A18AA4204D12A680546891845
:10052000016000E0456028684119A14205D1616879
:10053000696021684018286070BD6C6070BD10B59E
:10054000002801D000F002F810BD00000149182079
:10055000ABBEFEE7260002007546FFF775FFAE460C
:10056000050069465346C008C000854618B020B54E
:10057000FFF70AFE60BC00274908B6460026C0C542
:10058000C0C5C0C5C0C5C0C5C0C5C0C5C0C5403D4B
:1005900049008D46704710B50346406801E00346A8
:1005A0004068002801D08842F9D31868C3188B42EC
:1005B00006D0CB1CD808C000001D411A521A0146B3
:1005C000081D0A60FFF795FF10BD10B50446C04630
:1005D000C0462046FFF7C8FD10BD70B505460C4665
:1005E0000A2000E06D1C00F018F8002D06D02878D5
:1005F0000028F7D102E0641C00F00FF8002C02D0B4
:1006000020780028F7D10A2000F007F870BD10B557
:1006100000F00AF8FFF793FF10BD08B569460870AF
:100620000320ABBE08BD704710B5012805D00021DE
:1006300003A0FFF7D2FF012010BD09A1F8E70000D9
:1006400053494752544D454D3A204F7574206F66BB
:100650002068656170206D656D6F72790000000023
:100660003A2048656170206D656D6F727920636F07
:1006700072727570746564000248002101704170E7
:10068000704700000000002001200449C0050860F8
:10069000BFF34F8FBFF36F8F7047000080E100E022
:1006A000FEE7000070B5254CA0690007C00FA069E7
:1006B00017D0000CFE210840082590280DD1FFF727
:1006C000DBFFA0696903084207D1E0692843E061C4
:1006D000206804210843206070BDE0692843E06180
:1006E00028E0C006C00F04D0E06910210843E06193
:1006F00070BDA0694007C00F02D000F0F5FB70BDCF
:10070000A0698007C00F02D000F082FC70BDA06914
:100710008006C00F0AD0E06920210843E061A0698B
:10072000C007C00FF2D10120A06170BDA069C00751
:10073000C00FFAD0FFF7A8FF70BD000000540040C2
:1007400008B50449CA6B0243CA63C96B01400091F2
:1007500008BD00000010024010B5047900232649AE
:100760000268002C41D0002A3DD04479002C12D0E0
:10077000012C18D0022C19D001238279002A32D002
:100780001D498039012A19D0022A20D0032A22D0FB
:100790000220034327E04C6894434C6002680C68D5
:1007A00014430C60E9E70C68944301E00C681443BF
:1007B0000C6002684C6814434C60DEE702684C68C9
:1007C00094434C6000680A6802430A600BE00268C8
:1007D0000C68944302E002680C6814430C600068E3
:1007E0004A6802434A60184610BD0C6894430C6086
:1007F00000684A688243F5E780180240F0B500249B
:100800004CE00123A3401A4047D04B68012B01D094
:10081000022B0FD18E688568134653435F00DF19A2
:10082000BD4373431D438560CB684568534395437F
:100830001D4345600F69C668134653435D005D194B
:10084000AE435F433E43C6604E68022E1FD1FF2A6F
:100850000ED817464A69066A94461A467A437A437E
:100860001701BF1ABE4367467A43164306620EE07D
:10087000160A324672434F6972437243BC461601F0
:10088000B71A466ABE4367467A43164346624A68C9
:1008900006685343AE431E430660641C0A68134651
:1008A000E340AED10020F0BD30B5026852085200DE
:1008B00002608C68CA6803681F252D021202AB43D0
:1008C0002243134303604A680261026801231A430A
:1008D000026083680122D203934383608C690B69B1
:1008E00085682343ED0AED021D4385600B69002BEB
:1008F00002D08368134383600C68036803252D05C9
:10090000AB43234303604B69416891431943416002
:10091000002030BD08B504494A6B02434A63496B65
:100920000140009108BD00000010024008B50449D4
:100930004A6B02434A63496B0140009108BD0000C5
:100940000010024010B57D21C900FFF764FC044986
:10095000401E4861002088610520086110BD00002C
:1009600000E000E010B5044600F08CFA206000F0D2
:1009700069FA606000F076FAA06010BD10B500243E
:10098000032823D11248406903218007800F0904FE
:100990000843C94340180AD001280CD0022810D0BF
:1009A00000F070FA00F04EFA00F05CFA01E000F09E
:1009B00069FA04460AE000F00FF8012806D1054C58
:1009C00004E000F011F8012800D1C403204610BD56
:1009D000401002400024F400024800684005C00FA7
:1009E00070470000001002400248C0698007C00F35
:1009F00070470000401002400248C0687021084063
:100A000070470000001002400248C0688007800F55
:100A100070470000001002400248C0684004400EC9
:100A20007047000000100240014908607047000054
:100A300004000020FEB5044600680D46012738403A
:100A40005CD12969A868EA690843696911430843C8
:100A500021682B4A114008432060E968606803223E
:100A60001203904308436060A969A0681211904383
:100A70000843A0602348844203D10320FFF77EFF90
:100A800006E02148844232D16846FFF76BFF0298A6
:100A900000282CD06E68002E29D029680027EA692A
:100AA0000B2924D80123DB039A4213D109068A0DAE
:100AB00016498958FFF7AFFB4000710840183146CE
:100AC000FFF7A9FB81B2124808400907490F01430B
:100AD000E1600CE009068A0D0C498958FFF79BFB81
:100AE000710840183146FFF796FB80B2E060288815
:100AF000E16A80B2090909010143E1623846FEBD9D
:100B0000F369FFEF003801400044004094110008F1
:100B1000F0FF0000F0B589B0002406941821684663
:100B20000794FFF776FB0120FFF7F4FE0420FFF7A0
:100B3000F1FE0220FFF7EEFE1B4E4020B0621B4F7D
:100B40002020B8621A480221026ED208D200026642
:100B5000801506900125684605774477817706A8B9
:100B6000FFF7FAFD05200007C2682B0403210904E2
:100B70008A431A43C26002688A43026040200090A0
:100B8000029403946946019504943046FFF736FEBB
:100B900020200090029403946946019504943846FD
:100BA000FFF72CFE09B0F0BD000800500004005013
:100BB00008180240F0B58DB01C2106A8FFF729FBEC
:100BC00018216846FFF725FB2E49486903221203C6
:100BD0009043002548610220FFF7A8FE4020022430
:100BE0000126694671C1062769462748059704957D
:100BF000FFF704FE8020694671C1694622480597C7
:100C00000495FFF7FBFD2005FFF79AFD1F480168DB
:100C10000902090A01601E49A00508601D4C2068F0
:100C20007104084320601C480790902006950A90A4
:100C3000089509950B9506A90C952046FFF734FEFB
:100C40006068710608436060E06814490840E0602D
:100C5000E068E1138843E060206809018843206070
:100C60002068082108432060206810210843206084
:100C700020688021084320602068202108432060EC
:100C80000DB0F0BD401002400004005014E400E03C
:100C900000E100E0005400405018900001F8FFFF10
:100CA000F0B58DB01C2106A8FFF7B3FA18216846ED
:100CB000FFF7AFFA0120FFF739FE01200627C00237
:100CC000059700240090022501260520029469461C
:100CD0000396019504940007FFF790FDE80205973D
:100CE000009005200294694603960195049400073C
:100CF000FFF784FD6805FFF723FD06940894099427
:100D00000A940B940C940E480E4C079006A92046AA
:100D1000FFF7CAFD6068290608436060E0680A4979
:100D20000840E060E068E1138843E0602068090162
:100D30008843206020688910884320600DB0F0BD92
:100D40001A0910200058004001F8FFFF0848074921
:100D50000160084901600021416007498160C16864
:100D60004907FCD10549016070470000CCCC000068
:100D70000030004055550000FF0F0000AAAA0000F7
:100D8000F0B58FB0202106A8FFF743FA1821684676
:100D9000FFF73FFA28480121C26B49040A43C263A6
:100DA000C26B0A400E92426B01210A434263406BC0
:100DB000002408400E9005910420052702260D46C8
:100DC00000903F07029403940196049469463846C4
:100DD000FFF714FD082005950090029403946946DE
:100DE000019604943846FFF709FDE1204002079080
:100DF0000894069409940A940C940D940C200F4CBA
:100E00000B9006A92046FFF715FE60680921C9026C
:100E100088436060A0682A218843A0602068284336
:100E20002060E0698002C00FFBD0E0694002C00F83
:100E3000F7D00FB0F0BD00000010024000440040A9
:100E4000FEE77047054989688A093C210A400A4043
:100E50000349895CC906C90EC840704700100240AA
:100E6000C411000805498968054A4904490F8900E9
:100E7000515CC906C90EC84070470000001002400E
:100E80000412000870B5154EB06838210840144CA3
:100E9000082809D06500102808D030680121800496
:100EA000400F8140284616E0204670BDFFF7ACFD9C
:100EB000022801D0032800D02C46F068450F6D1C95
:100EC000FFF79AFD0609761CFFF7A6FD6043314641
:100ED000FFF7A1F92946FFF79EF970BD0010024007
:100EE00000127A0070470000F0B54648436A474A4E
:100EF0004549107808240B54401C107042480B7868
:100F000000212830AE2B43D029DC022B4AD00B2BFA
:100F10004ED00F2B3FD0102B20D10023C1545B1C8F
:100F2000282BFBDB384B50335D79DC792D0724010E
:100F30002D0F2C43E6B29F781D799C791B7A022FE6
:100F400040D031497F225031497809011143A12213
:100F50001140017046708570C4700371F0BD82222B
:100F60000725E12B19D0E22B28D0E32B28D0F62B34
:100F7000F4D1552202705622427032228270C17022
:100F8000017141718171C171112101724472F0BD11
:100F900026210170F0BD0470F0BD0423037042707F
:100FA000857003E05422027041708170C170F0BD01
:100FB000132202700C2242708170F0BD0270F0BDED
:100FC0000570F0BD97787F1CFFB29770012F07D096
:100FD000A127077046708570C47003719170F0BDD1
:100FE000A2210170084950314A7BCB7A12011B07BC
:100FF0001B0F1A4342708A7A82700A7BC270897B07
:101000000171F0BD005400400800002000000020E5
:10101000054A04495078095C401C507003488162BD
:101020007047000030000020000000200054004005
:101030007047000010B5274801210268D208D2008D
:101040000A43026001684907490F0129FAD1224881
:10105000016882151143016001684905C90FFBD081
:101060001D4940310A6A01231A430A620A6A92073B
:10107000D20FFBD01949C268194B1A401143C16005
:1010800001680122120611430160C1681201114377
:10109000C16001688901C90FFBD081680F2212026B
:1010A0009143816082680221D208D2000A438260A3
:1010B0003822816811401029FBD181680722120370
:1010C00091438160074C2046FFF73CFC2046FFF728
:1010D000ABFC10BD0020024000100240020C00607A
:1010E0008C80FF1F006CDC027047000010B5044CC0
:1010F00004600446403423756175A27510BD00007C
:101100002C120008034901600022014640314A7553
:101110008A7570472C12000810B5002303220221A3
:101120000348FFF7E3FF034A0349FFF73FF810BD09
:1011300080000020000000080511000808B51348D1
:10114000012102680A4302600068084000900F48CD
:1011500009074038C26B0A43C263C06B0840009065
:101160000B48C16903220902090A92071143C161B0
:10117000FFF760FFFFF7CEFCFFF71CFDFFF790FDC8
:10118000FFF7FEFDFFF7E2FDFEE700004010024022
:1011900004ED00E001000000020000000400000077
:1011A00006000000080000000A0000000C0000001B
:1011B000100000002000000040000000800000003F
:1011C000000100000000000000000000000000001E
:1011D000000000000000000000000000000000000F
:1011E00000000000010000000200000003000000F9
:1011F00004000000060000000700000008000000D6
:1012000009000000000000000000000000000000D5
:1012100000000000010000000200000003000000C8
:1012200004000000000000000000000000000000BA
:101230000000000058120008000000200800000014
:1012400004010008601200080800002030070000B8
:1012500020010008C5FEFFFF000001000024F4008B
:04000005080000C12E
:00000001FF
