:020000040800F2
:10000000A0080020750100085111000889090008A6
:1000100000000000000000000000000000000000E0
:100020000000000000000000000000005511000862
:10003000000000000000000053110008D513000864
:100040008701000887010008870100088701000870
:10005000870100081508000885080008C90800087D
:1000600000000000870100088701000887010008E0
:100070008701000887010008870100088701000840
:100080008701000887010008870100088701000830
:100090000000000087010008870100088D090008A2
:1000A000870100088701000887010008791400080B
:1000B000891400088701000800000000000000000B
:1000C00000F002F800F047F80CA030C808382418F7
:1000D0002D18A246671EAB4654465D46AC4201D180
:1000E00000F039F87E460F3E0FCCB646012633426B
:1000F00000D0FB1AA246AB46334318471823000032
:1001000038230000103A02D378C878C1FAD85207D1
:1001100001D330C830C101D504680C6070470000BD
:100120000023002400250026103A01D378C1FBD813
:10013000520700D330C100D50B6070471FB500983F
:10014000019900F0BEF900F03DF91FBD10B5002087
:1001500000F020FA10BD00F0BFFA1146FFF7EEFFE5
:1001600001F01CFD00F0D7FA03B4FFF7EFFF03BC6A
:1001700000F0ACFA0748804707480047FEE7FEE773
:10018000FEE7FEE7FEE7FEE704480549054A064BA1
:100190007047000075140008C1000008A00200208C
:1001A000A0080020A0040020A004002070B5044690
:1001B000051F00F061F90068002C1AD0446801E0C6
:1001C00020466468002C01D0AC42F9D301680A18BB
:1001D000AA4204D12A6805468918016000E04560FA
:1001E00028684119A14205D16168696021684018F9
:1001F000286070BD6C6070BDF8B5074615460E46A8
:10020000102000F08BF9040009D06760A660E5605B
:1002100000F036F90168216004600020F8BD01207B
:10022000F8BD01E004C0091F0429FBD28B0701D5EA
:100230000280801CC90700D00270704700290BD0D3
:10024000C30702D00270401C491E022904D3830751
:1002500002D50280801C891EE3E70022EEE700221F
:10026000DFE7002203098B422CD3030A8B4211D310
:1002700000239C464EE003460B433CD40022430837
:100280008B4231D303098B421CD3030A8B4201D327
:1002900094463FE0C3098B4201D3CB01C01A5241BF
:1002A00083098B4201D38B01C01A524143098B420F
:1002B00001D34B01C01A524103098B4201D30B01F8
:1002C000C01A5241C3088B4201D3CB00C01A52411D
:1002D00083088B4201D38B00C01A524143088B42E2
:1002E00001D34B00C01A5241411A00D2014652417B
:1002F000104670475DE0CA0F00D04942031000D39A
:100300004042534000229C4603098B422DD3030AEE
:100310008B4212D3FC22890112BA030A8B420CD3FE
:10032000890192118B4208D3890192118B4204D327
:1003300089013AD0921100E08909C3098B4201D3A7
:10034000CB01C01A524183098B4201D38B01C01AE1
:10035000524143098B4201D34B01C01A5241030958
:100360008B4201D30B01C01A5241C3088B4201D307
:10037000CB00C01A524183088B4201D38B00C01AB4
:100380005241D9D243088B4201D34B00C01A52418B
:10039000411A00D20146634652415B10104601D318
:1003A0004042002B00D54942704763465B1000D3A2
:1003B000404201B50020C046C04602BD70477047AC
:1003C0007047000070B5064C7C44064D7D4403E048
:1003D000206800198047241DAC42F9D170BD00008F
:1003E000682000006C2000000102C21504D0012327
:1003F000DB071943002A0ADB9E239A1A02D4084617
:10040000D0407047FF2241001206914201D90020DE
:100410007047C017C04370471F22030C02D10F2240
:1004200000041CD0030E01D10002083A030F01D1D1
:100430000001121F830F01D18000921E002801DBF2
:100440004000521ED2055118021251181922904034
:1004500004D3491C002801D14908490008467047C7
:10046000C10FC90700D04042012292071143D3E7D0
:1004700001218907D0E700000048704748020020AA
:100480000048704778020020004870474002002072
:10049000704770477047704738B504460A460020D9
:1004A0006946C046C046002805D00246204600994D
:1004B00000F0E5F8012038BD10B5012000F0FFF88C
:1004C00010BDF8B5C046C046054600200C461020B9
:1004D000C0460646A819A0420DD9324669460020FA
:1004E000C046C046070001D100F0E9F80098A042DC
:1004F00000D00546C419FFF7BFFFF61D074605608B
:10050000F008C0004619284600F0B2F8B44204D002
:1005100031463868A21B00F0B2F8F8BD70B5064647
:10052000FFF7AAFF056830460B30C408E400B44268
:1005300001D8002070BD68682A46002818D00168DC
:10054000A14211D30B46214608318B4208D34368A0
:1005500001194B6003681B1B0B605160046001E0D4
:1005600041685160001D70BD024640680028E6D118
:1005700021462846FFF790FF0028DCD170BD10B55A
:10058000FFF782FF006810BD10B50446FFF77CFF3F
:10059000046010BDF8B50646FFF772FF00900546EF
:1005A00015E0002E02D0E068B0420FD1206828602C
:1005B0000098A1680768606888472046FFF7F6FD45
:1005C00000980068B84202D00098E8E725462C68F9
:1005D000002CE6D1F8BD000030B5C30D1906214A44
:1005E000090E31D0FF292FD000283ADB010250023A
:1005F000014301207D33C34000D249080120800718
:100600001724091A2406490882102343FF252D06C2
:100610004C00211A04D4891A02D45400201800E096
:10062000214652085B19F3D51A220446944007D399
:1006300082068A4203D180218030884300E08030E6
:10064000C009D905081830BDFF2904D04100FAD0EF
:10065000C00FC00730BD410201D0104630BD002898
:10066000FCDAFAE70000C07F004870474002002033
:10067000002101604160806070471020704710B514
:100680000346406801E003464068002801D08842E4
:10069000F9D31868C3188B4206D0CB1CD808C00009
:1006A000001D411A521A0146081D0A60FFF77EFD1F
:1006B00010BD10B5002801D000F008F810BD10B52D
:1006C00000F04CF8FFF7F5FF10BD000001491820BD
:1006D000ABBEFEE7260002007546FFF7C5FFAE463B
:1006E000050069465346C008C000854618B020B5CD
:1006F000FFF74AFD60BC00274908B6460026C0C582
:10070000C0C5C0C5C0C5C0C5C0C5C0C5C0C5403DC9
:1007100049008D46704710B50446C046C046204685
:10072000FFF722FD10BD70B505460C460A2000E01B
:100730006D1C00F03BF8002D06D028780028F7D17A
:1007400002E0641C00F032F8002C02D0207800286F
:10075000F7D10A2000F02AF870BD000010B501287A
:1007600005D0002103A0FFF7DEFF012010BD09A185
:10077000F8E7000053494752544D454D3A204F7514
:1007800074206F662068656170206D656D6F727989
:10079000000000003A2048656170206D656D6F7241
:1007A0007920636F727275707465640008B569466C
:1007B00008700320ABBE08BD70470000024800214E
:1007C00001704170704700000000002070B500F01B
:1007D00009FE0D487D21C9000068FFF742FD411E5A
:1007E0000A480025ED43814209D8094C6161032183
:1007F000284601F0ADF80020A0610720206100210B
:10080000284601F0A5F870BD14000020FFFFFF008E
:1008100000E000E010B5022001F012F8184C0028AA
:1008200019D002202061142001F0F0F8012001F01D
:1008300013F900280FD100F023FF102020610220BF
:100840002061172000F09CFF072000F099FF012194
:10085000152001F013F9E168022088430FD102202E
:10086000E060142001F0D2F8012001F0F5F8012831
:1008700005D1172000F078FF072000F075FF10BDAC
:100880000018024070B5042000F0C8F90C4D0D4C62
:10089000002807D0A068002800D0804729680420DD
:1008A00081432960082000F0B9F9002807D0E068EA
:1008B000002800D08047296808208143296070BD46
:1008C000801802400002002010B5102000F0B8FF90
:1008D000002804D002491020086100F04DFE10BD30
:1008E00000180240172000F04BFFBFF34F8F044960
:1008F0000248C860BFF34F8F00BFFDE70400FA0550
:1009000000ED00E072B6BFF34F8F04490248C860A3
:10091000BFF34F8F00BFFDE70400FA0500ED00E0D4
:1009200010B516480322817801231548052906D001
:10093000012906D0032906D0072907D007E007249C
:1009400002E0C27103E00524C47100E0C3714C08E9
:100950000C43E407E40F4907C90F0C4300D083712F
:100960000849CB79002B01D08271827389790029E3
:1009700002D004218171817310BD00003600002077
:100980005600002000000020FEE7000010B51748C8
:1009900081690A0706D5C16908221143C161FFF7C1
:1009A0000DFF10BD4B070122002B05DA81691143B1
:1009B000816100F0DDFB10BD8B0705D58169114316
:1009C000816100F0F7FC10BD8A0606D5C1692022BE
:1009D0001143C16100F0C0FB10BDC90604D5C16957
:1009E00010221143C16110BDFFF77CFF005400408D
:1009F000FFB50446480683B0000E04901D46164617
:100A00000020284F07E0401CB84204D1FFF77AFFCE
:100A1000012007B0F0BDA1690904C90FF3D100207E
:100A2000214902460191009002232046049900F0DA
:100A300079F9A069C007C00FFBD0F0B2A062A0692D
:100A4000C007C00FFBD0300AA062002005E0401CA8
:100A5000B84202D10120A061D8E7A169C907C90F36
:100A6000F5D0A0694006C00FFBD001200F49400619
:100A700001910090002220460C9B049900F052F94D
:100A800006E0A0694007C00F02D0606A28706D1CA4
:100A9000A0698006C00FF4D0E06920210843E0611E
:100AA0000020B6E7A861000000200080002400803C
:100AB000FFB50446480683B0010E174600250C9E7C
:100AC00003E025486D1C854217D0A0690004C00FC3
:100AD000F7D1224A01921003009000222046B31C55
:100AE00000F020F9A069C007C00FFBD0F8B2A062E7
:100AF000194807E06D1C854204D1FFF703FF012070
:100B000007B0F0BDA169C907C90FF3D0390AA162C6
:100B1000002105E0491C814202D10120A061ECE7DF
:100B2000A269D207D20FF5D0002008E00699095C2F
:100B3000A162A169C907C90FFBD0401CC0B2B04275
:100B4000F4D3A0698006C00FFBD0E06920210843E0
:100B5000E0610020D4E70000A861000000200080D0
:100B600008B50449CA6B0243CA63C96B01400091CE
:100B700008BD00000010024010B50479002326498A
:100B80000268002C41D0002A3DD04479002C12D0BC
:100B9000012C18D0022C19D001238279002A32D0DE
:100BA0001D498039012A19D0022A20D0032A22D0D7
:100BB0000220034327E04C6894434C6002680C68B1
:100BC00014430C60E9E70C68944301E00C6814439B
:100BD0000C6002684C6814434C60DEE702684C68A5
:100BE00094434C6000680A6802430A600BE00268A4
:100BF0000C68944302E002680C6814430C600068BF
:100C00004A6802434A60184610BD0C6894430C6061
:100C100000684A688243F5E7801802400349096882
:100C2000884301D00020704701207047801802409F
:100C30008A07130F054A10B59B181A6E090C072472
:100C40008C40A243884002431A6610BD001802403F
:100C5000F0B500244CE00123A3401A4047D04B6874
:100C6000012B01D0022B0FD18E68856813465343A8
:100C70005F00DF19BD4373431D438560CB68456842
:100C8000534395431D4345600F69C668134653435C
:100C90005D005D19AE435F433E43C6604E68022E61
:100CA0001FD1FF2A0ED817464A69066A94461A468B
:100CB0007A437A431701BF1ABE4367467A43164305
:100CC00006620EE0160A324672434F69724372435F
:100CD000BC461601B71A466ABE4367467A431643B6
:100CE00046624A6806685343AE431E430660641C6E
:100CF0000A681346E340AED10020F0BD10B503688A
:100D000049434C000C19A34351430B43036010BDEE
:100D100010B5C36849434C000C19A34351430B431E
:100D2000C36010BDF0B5069C4568660D11431A04FA
:100D30001143044F059A3E431143B54321430D43EC
:100D40004560F0BDFF7BFF0330B5026852085200DA
:100D500002608C68CA6803681F252D021202AB432B
:100D60002243134303604A680261026801231A4365
:100D7000026083680122D203934383608C690B690C
:100D800085682343ED0AED021D4385600B69002B46
:100D900002D08368134383600C68036803252D0524
:100DA000AB43234303604B6941689143194341605E
:100DB000002030BD08B504494A6B02434A63496BC1
:100DC0000140009108BD00000010024008B5044930
:100DD0004A6B02434A63496B0140009108BD000021
:100DE0000010024010B57D21C900FFF73AFA04490E
:100DF000401E4861002088610520086110BD000088
:100E000000E000E001490860704700001400002085
:100E100008B506490A690092421C00D0401C0A69C4
:100E2000D20300D5401E0028F9D108BD00E000E043
:100E3000F0B587B018216846FFF711FA0420FFF7D4
:100E4000C5FF2020FFF7C2FF0120FFF7BFFF0220F0
:100E5000FFF7BCFF0127FF03052000078761434917
:100E6000202088610024012605200294039469460D
:100E70000007009701960494FFF7EAFE20200090F7
:100E80000220029001960394694604943748FFF7C4
:100E9000DFFEB003032500906946019504943448B1
:100EA000FFF7D6FE69463248009701950494FFF794
:100EB000CFFE052069460007009601950494FFF7D0
:100EC000C7FE102000900520694601950494000794
:100ED000FFF7BEFE2020009005206946019504948E
:100EE0000007FFF7B5FE4027052069460007009779
:100EF00001950494FFF7ACFE802000900520694620
:100F0000019504940007FFF7A3FE69461748009671
:100F100001950494FFF79CFE02200090694601951C
:100F200004941248FFF794FE360205206946000734
:100F3000009601950494FFF78BFE69460C480097D4
:100F400001950494FFF784FE0820009069460195FE
:100F500004940648FFF77CFE694604480096019514
:100F60000494FFF775FE07B0F0BD000000040050C8
:100F700000080050F0B58DB01C2106A8FFF76FF9EE
:100F800018216846FFF76BF93149486903221203BB
:100F90009043002548610220FFF70CFF4020022605
:100FA0000090012406270196029503AAB0C2694663
:100FB0002848FFF74DFE802000900196029503AA75
:100FC000B0C269462348FFF743FE6005FFF7C8FD3E
:100FD000214801680902090A01602049E00508600A
:100FE0001F4C20683104884320601E4807909020E1
:100FF00006950A90089509950B9506A90C9520462B
:10100000FFF7A2FE6068310608436060E068164999
:101010000840E060E068E1138843E060206809016F
:101020008843206020680821084320602068102140
:1010300008432060206820210843206020680421A4
:10104000084320602068304320600DB0F0BD0000F0
:10105000401002400004005014E400E000E100E011
:10106000005400406C21C00001F8FFFFF0B58DB0C6
:101070001C2106A8FFF7F3F818216846FFF7EFF8E0
:101080000120FFF797FE01200627C00205970024E4
:1010900000900225012605200294694603960195D9
:1010A00004940007FFF7D4FDE8020597009005209F
:1010B000029469460396019504940007FFF7C8FD62
:1010C0006805FFF74DFD12480790069408940994AF
:1010D0000B940C9420200F4C0A9006A92046FFF791
:1010E00033FE6068290608436060E0680A490840EA
:1010F000E060E068E1138843E0602068090188430C
:10110000206020688910884320600DB0F0BD000089
:101110006C21C0000058004001F8FFFF0848074953
:101120000160084901600121416007498160C1688F
:101130004907FCD10549016070470000CCCC000094
:101140000030004055550000FF0F0000AAAA000023
:10115000FEE770477047000010B50448007810287B
:1011600003D10121152000F089FC10BD46000020AC
:10117000F0B58C48426A8D4C8B49207804270A547C
:10118000401C20700B78072200251031E32B75D00E
:101190001FDC87480126407A102B71D011DC022B0E
:1011A0005CD00B2B60D00F2B40D108220A700B466D
:1011B00081087F4DC943C9071022ED7B002913D058
:1011C00017E0AE2B33D08220E12B33D0E22B2DD190
:1011D0002EE01C46F03C4520230000F07DFB074D2F
:1011E00029294F4F4F2F2700A908C943C90700D10C
:1011F0001A70C107A778C917491C3940BC46EF07C8
:10120000FF177F1C8E46394201D01A70E6704007E6
:10121000C00F61460840384201D01A7066716907F4
:101220007046C90F084201D01A702671F0BD262001
:101230000870F0BD0F7048708A7013E05520087078
:101240005620487032208870CD700D714D718D71AF
:10125000CD711120087208204872F0BD542008702A
:101260004D708D70CD70F0BD132008700C2048704B
:101270008D70F0BD02E003E00F70FAE70A70F8E746
:1012800000220B469D54521C102AFBDB484FC0071E
:1012900006D0A120187000F001FC787AC00707D1B1
:1012A000F87BC043C00703D1A220187000F012FCE5
:1012B000787AC043C00703D1F87BC043C00705D08C
:1012C000A5703878C143C90727D066E0A670A12071
:1012D0001870A2261E7200F081FB787A4007F0D4C5
:1012E000F87B8008C043C007EBD11E7000F0F2FB12
:1012F000787AC109C943C90704D1C043C00701D1E5
:10130000B1201870F87BC109C943C907D9D1C043BE
:10131000C007D6D1B2201872D3E7C008C043C007B7
:101320003BD1787A082803D00021882810D000E02B
:101330000121002001432126002902D01E7000F067
:10134000ADFBF87B082805D00021882828D002E0D2
:101350000120EFE70121002001432227002902D0CC
:101360001F7000F0B7FBE078002804D0E5701E7015
:101370001F7200F033FB2079002805D025711E7004
:10138000A220187200F02AFB6079002805D0657150
:10139000A12018701F7200F021FBFFF7C1FA68E767
:1013A0000120D9E700540040460000200000002042
:1013B00036000020054A04495078095C401C5070F2
:1013C00003488162704700005600002000000020A2
:1013D0000054004002480168491C01607047000049
:1013E0001800002070B51F4DA968382001401E4824
:1013F0001E4C08290DD0430010291BD0182913D0EA
:10140000202914D0286801218004400F814018460B
:1014100024E02060A8683C21800908401449085C49
:101420002168C140216070BD7D200002F1E70120EC
:10143000C003EEE7E9688A07E968920F4906490F99
:10144000491C032A00D01846FEF70BFF0146E86846
:101450004004400E4843E968490F491CFEF701FF6C
:10146000D7E700000010024000127A0014000020AC
:10147000201C00087047000010B5024800F0EAF98F
:1014800010BD0000C800002010B5024800F0E2F9CD
:1014900010BD000064010020F8B50120C003052143
:1014A000090788610220FFF7B3FC2E4C0127277043
:1014B00000256570022603222346920320212A4834
:1014C0000096FFF7F5FA3322284B92022021264896
:1014D0000096FFF78DFA2549002348780978000225
:1014E00008432349234A088020211F480095FFF71D
:1014F000DFFA27701F4A65702346921E20211A4882
:101500000096FFF7D5FA0220FFF782FC2770194AF0
:1015100065702346D21E202113480096FFF7C8FAB3
:101520003220FFF775FC0A202070657002462346C2
:1015300020210D480096FFF7BBFA25706570234601
:101540001022202108480096FFF7B2FA0120FFF789
:101550005FFC00230322202103480095FFF7A8FA2F
:10156000F8BD000066000020005800403600002052
:101570001000002004C00000F8B510203C4C009082
:101580003A4B802220212046FFF732FA322000F029
:101590003DFA002003460090032220212046FFF759
:1015A00087FA3248417902790D02324915430D809C
:1015B000C279837914021C434C80C27A867A130262
:1015C00033430B81427B067B120232434A812A4914
:1015D00006790E7086794E704779C6793F073601D5
:1015E0003F0F3E438E70067ACE70867A4E71067B30
:1015F0008E71C77A467B3F0736013F0F3E43CE715F
:10160000867B0E72C17B1D4ECF0724D0407A0143EA
:10161000480725D5E81A00D5404281B23181A01A89
:1016200000D5404280B27081494340430818FEF71C
:1016300017FF00F0DFFAFEF7D7FE80B2B081F18924
:10164000002906D00122884200D2B271884200D916
:10165000F271F08104E00020B081F081F071B0718E
:101660000021152000F00AFAF8BD00003600002025
:1016700000580040260000201C0000200000002030
:10168000F8B50124E40305252D07AC621420FFF70B
:10169000BFFBAC610220FFF7BBFB2E4C012727707C
:1016A00000256570022603222346920320212A4842
:1016B0000096FFF7FDF93322284B9202202126489D
:1016C0000096FFF795F9254900234878097800022C
:1016D00008432349234A088020211F480095FFF72B
:1016E000E7F927701F4A65702346921E20211A4889
:1016F0000096FFF7DDF90220FFF78AFB2770194AF1
:1017000065702346D21E202113480096FFF7D0F9BA
:101710003220FFF77DFB0A202070657002462346C9
:1017200020210D480096FFF7C3F925706570234608
:101730001022202108480096FFF7BAF90120FFF790
:1017400067FB00230322202103480095FFF7B0F92F
:10175000F8BD000066000020005800403600002060
:101760001000002004C00000002805DBC106C90EDF
:1017700001208840014908607047000000E100E056
:10178000002809DBC106C90E012088400349086012
:10179000BFF34F8FBFF36F8F7047000080E100E011
:1017A00010B5224802210268D208D2000A43026022
:1017B00001684907490F0229FAD11D4801688215BD
:1017C0001143016001684905C90FFBD01949C2687E
:1017D000194B1A401143C1600168012212061143DE
:1017E0000160C16812011143C16001688901C90F1C
:1017F000FBD081680F22120291438160826802212E
:10180000D208D2000A438260382281681140102930
:10181000FBD181680722120391438160074C204667
:10182000FFF7E0FA2046FFF7EDFA10BD0020024076
:1018300000100240020800208C80FF1F0090D0039F
:1018400003490969884301D000207047012070478F
:101850000018024030B40169CA699206D20F16D04E
:101860000A689206D20F12D0496ACAB2018B438B22
:10187000491C4906490E8B4204D0048B03461C3395
:10188000E25401834069002801D030BC004730BCDD
:101890007047000000227D23DB0083604260024B22
:1018A0000360426101617047E823000810B5044CF1
:1018B00004600446403423756175A27510BD0000B4
:1018C0000C240008034901600022014640314A759A
:1018D0008A7570470C24000830B47446641E25785D
:1018E000641CAB4200D21D46635D5B00E31830BC54
:1018F00018470000002805DBC106C90E01208840FA
:10190000014908607047000000E100E08307FF2202
:10191000DB0E9A408907090E9940002808DB8308EE
:1019200009489B001B1818689043084318607047CB
:101930000007000F0838830804489B001B18D8696B
:1019400090430843D861704700E400E000ED00E0F8
:101950008307FF22DB0E9A408907090E9940002871
:1019600008DB830809489B001B181868904308434C
:10197000186070470007000F0838830804489B0070
:101980001B18D86990430843D861704700E400E011
:1019900000ED00E000B505490548FFF77BFF04486E
:1019A00004499C30FFF776FF00BD0000003801407D
:1019B000C80000200044004010B500230C220B2179
:1019C0000348FFF773FF034A0349FEF715FC10BDF8
:1019D0007000002000000008C518000809480A49E6
:1019E00082784A7002788A704278CA70C2784A71E6
:1019F000C2794A7242798A728279CA72007A4873CD
:101A0000704700001C00002056000020F8B5054675
:101A10000F48002400680D490090FEF722FC68433F
:101A20000C49074688690B498D69461B002E01DD6C
:101A3000A41906E07D21C9000098FEF712FC801968
:101A40000419BC4201D82846EDE7F8BD40420F001A
:101A50001400002000E000E060280AD2142148436E
:101A600005490A58126940188089024201D00120B4
:101A70007047002070470000601C0008602808D2F2
:101A8000054A14235843831800299989105801D016
:101A90008161704781627047601C00080A490B48E9
:101AA0008A7842700A7882704A78C270C978417127
:101AB0000749497ACA09D243D20704D1C943C907A1
:101AC00001D1B121017070471C0000205600002098
:101AD000360000200A490B48CA7942704A79827060
:101AE0008A79C270097A41710749C97BCA09D24310
:101AF000D20704D1C943C90701D1B221017070478F
:101B00001C00002056000020360000207CB5002478
:101B100001210094C90420460194FFF789F80121AE
:101B20000846FFF785F802250126684600950671EC
:101B3000447103218171FFF71FF81020009068465F
:101B4000067144718571FFF717F8052424070022F8
:101B500002212046FFF7DCF80F4D00221021284615
:101B6000FFF7D6F8002202212046FFF7C7F800222F
:101B700010212846FFF7C2F800210520FFF7C6FE16
:101B80000520FFF7B7FE01210720FFF7BFFE072062
:101B9000FFF7B0FE7CBD00000004005008B51248FD
:101BA000012102680A4302600068084000900E4864
:101BB00009074038C26B0A43C263C06B08400090FB
:101BC000FFF7EEFDFEF702FEFFF732F9FFF7D2F95D
:101BD000FFF74CFAFFF7A2FAFFF75EFCFFF796FF5C
:101BE000024803490860FDE740100240AAAA00002D
:101BF0000030004070B50546FEF7EEFC410004469B
:101C0000FF204908C005411AC90F07D069004908DB
:101C1000401AC00F02D10120FEF7B6FC204670BD6D
:101C200000000000000000000000000000000000B4
:101C300000000000000000000000000000000000A4
:101C4000010000000200000003000000040000008A
:101C50000600000007000000080000000900000066
:101C6000000000500000004000240140010001007D
:101C7000000000000000005000000040002401406F
:101C800002000200000000040000005000000040BC
:101C90000024014004000300000000080000005080
:101CA0000000004000240140080004000000000C77
:101CB00000000050002000400024014010000100FE
:101CC000000000100000005000000040002401400F
:101CD000200001000000001400000050000400403B
:101CE00000240140400001000000001800000050E6
:101CF0000004004000240140800002000000001C9D
:101D000000000050002C0140000000000001010014
:101D1000FFFFFFFF00000050002C0140000000000A
:101D200000020200FFFFFFFF00000050002C0140F6
:101D30000000000000040300FFFFFFFF0000005050
:101D4000002C01400000000000080400FFFFFFFF1E
:101D50000000005000000000000000000010000023
:101D6000FFFFFFFF00000050000000000000000027
:101D700000200000FFFFFFFF0000005000000000F7
:101D80000000000000400000FFFFFFFF00000050C7
:101D9000000000000000000000800000FFFFFFFFC7
:101DA0000004005000040040002401400100030032
:101DB0000000000000040050000400400024014026
:101DC00002000400000000000004005000000000B9
:101DD0000000000004000000FFFFFFFF00040050AF
:101DE000000000000000000008000000FFFFFFFFEF
:101DF000000400500000000000000000100000007F
:101E0000FFFFFFFF00040050000000000000000082
:101E100020000000FFFFFFFF000400500000000052
:101E20000000000040000100FFFFFFFF0004005021
:101E3000000000000000000080000200FFFFFFFF24
:101E4000000400500000000000000000000103003A
:101E5000FFFFFFFF00040050000000000000000032
:101E600000020400FFFFFFFF00040050000000001C
:101E70000000000000040000FFFFFFFF000400500E
:101E8000000000000000000000080000FFFFFFFF4E
:101E900000040050000000000000000000100000DE
:101EA000FFFFFFFF000400500000000000000000E2
:101EB00000200000FFFFFFFF0004005000000000B2
:101EC0000000000000400000FFFFFFFF0004005082
:101ED000000000000000000000800000FFFFFFFF86
:101EE0000008005000000000002401400100000034
:101EF0000000000000080050000000000024014025
:101F00000200000000000000000800500000000077
:101F10000024014004000000000000000008005000
:101F20000000000000240140080000000000000044
:101F300000080050000000000024014010000000D4
:101F400000000000000800500000000000240140D4
:101F50002000000000000000000800500000000009
:101F60000000000040000100FFFFFFFF00080050DC
:101F7000000000000000000080000200FFFFFFFFE3
:101F800000080050000000000000000000010300F5
:101F9000FFFFFFFF000800500000000000000000ED
:101FA00000020400FFFFFFFF0008005000000000D7
:101FB0000000000000040000FFFFFFFF00080050C9
:101FC000000000000000000000080000FFFFFFFF0D
:101FD0000008005000000000000000000010000099
:101FE000FFFFFFFF0008005000000000000000009D
:101FF00000200000FFFFFFFF00080050000000006D
:102000000000000000400000FFFFFFFF000800503C
:10201000000000000000000000800000FFFFFFFF44
:10202000000C005000000000000000000100000053
:10203000FFFFFFFF000C0050000000000000000048
:1020400002000000FFFFFFFF000C00500000000036
:102050000000000004000000FFFFFFFF000C005024
:10206000000000000000000008000000FFFFFFFF6C
:10207000000C0050000000000000000010000000F4
:10208000FFFFFFFF000C00500000000000000000F8
:1020900020000000FFFFFFFF000C005000000000C8
:1020A0000000000040000000FFFFFFFF000C005098
:1020B000000000000000000080000000FFFFFFFFA4
:1020C000000C0050000000000000000000010000B3
:1020D000FFFFFFFF000C00500000000000000000A8
:1020E00000020000FFFFFFFF000C00500000000096
:1020F0000000000000040000FFFFFFFF000C005084
:10210000000000000000000000080000FFFFFFFFCB
:10211000000C005000000000000000000010000053
:10212000FFFFFFFF000C0050000000000000000057
:1021300000200000FFFFFFFF000C00500000000027
:102140000000000000400000FFFFFFFF000C0050F7
:10215000000000000000000000800000FFFFFFFF03
:10216000001400500000000000000000010000000A
:10217000FFFFFFFF001400500000000000000000FF
:1021800002000000FFFFFFFF0014005000000000ED
:102190000000000004000000FFFFFFFF00140050DB
:1021A000000000000000000008000000FFFFFFFF2B
:1021B00000140050000000000000000010000000AB
:1021C000FFFFFFFF001400500000000000000000AF
:1021D00020000000FFFFFFFF00140050000000007F
:1021E000000000004000000000000000001400504B
:1021F000000000000000000080000000000000005F
:102200000014005000000000000000000001000069
:10221000000000000014005000000000000000005A
:102220000002000000000000001400500000000048
:102230000000000000040000000000000014005036
:10224000000000000000000000080000FFFFFFFF8A
:10225000001400500000000000000000001000000A
:10226000FFFFFFFF0014005000000000000000000E
:1022700000200000FFFFFFFF0014005000000000DE
:102280000000000000400000FFFFFFFF00140050AE
:10229000000000000000000000800000FFFFFFFFC2
:1022A000000000000000000000000000000000002E
:1022B000000000000000000000000000000000001E
:1022C000000000000000000000000000000000000E
:1022D00000000000000000000000000000000000FE
:1022E00000000000000000000000000000000000EE
:1022F00000000000000000000000000000000000DE
:1023000000000000000000000000000000000000CD
:1023100000000000000000000000000000000000BD
:1023200000000000000000000000000000000000AD
:10233000000000000000000000000000000000009D
:10234000000000000000000000000000000000008D
:10235000000000000000000000000000000000007D
:10236000000000000000000000000000000000006D
:10237000000000000000000000000000000000005D
:10238000000000000000000000000000000000004D
:10239000000000000000000000000000000000003D
:1023A000000000000000000000000000000000002D
:1023B000000000000000000000000000000000001D
:1023C000000000000000000000000000000000000D
:1023D00000000000000000000000000000000000FD
:1023E00000000000000000000000000000000000ED
:1023F00000000000000000000000000000000000DD
:1024000000000000000000000000000000000000CC
:10241000000000003C240008000000201C00000018
:1024200004010008582400081C0000208408000053
:102430002001000885F5FFFF5DF5FFFF00000000AB
:10244000000000000000000000000000000000008C
:082450000024F400000000006C
:04000005080000C12E
:00000001FF
