:020000040800F2
:100000001809002075010008D10F00082908000810
:1000100000000000000000000000000000000000E0
:100020000000000000000000000000007510000843
:100030000000000000000000D30F000801120008BB
:100040008701000887010008870100088701000870
:1000500087010008D5060008110700084D070008B1
:1000600000000000870100088701000887010008E0
:100070008701000887010008870100088701000840
:100080008701000887010008870100088701000830
:100090000000000087010008870100082D08000803
:1000A000870100088701000887010008A5120008E1
:1000B000B5120008870100080000000000000000E1
:1000C00000F002F800F047F80CA030C808382418F7
:1000D0002D18A246671EAB4654465D46AC4201D180
:1000E00000F039F87E460F3E0FCCB646012633426B
:1000F00000D0FB1AA246AB46334318475C200000F1
:100100007C200000103A02D378C878C1FAD8520790
:1001100001D330C830C101D504680C6070470000BD
:100120000023002400250026103A01D378C1FBD813
:10013000520700D330C100D50B6070471FB500983F
:10014000019900F072F900F03DF91FBD10B50020D3
:1001500000F0C9F910BD00F01FFA1146FFF7EEFFDD
:1001600001F014FB00F037FA03B4FFF7EFFF03BC14
:1001700000F00CFA0748804707480047FEE7FEE713
:10018000FEE7FEE7FEE7FEE704480549054A064BA1
:1001900070470000A1120008C100000818030020E9
:1001A00018090020180500201805002070B5044625
:1001B000051F00F019F90068002C1AD0446801E00E
:1001C00020466468002C01D0AC42F9D301680A18BB
:1001D000AA4204D12A6805468918016000E04560FA
:1001E00028684119A14205D16168696021684018F9
:1001F000286070BD6C6070BDF8B5074615460E46A8
:10020000102000F03FF9040009D06760A660E560A7
:1002100000F0EEF80168216004600020F8BD0120C4
:10022000F8BD01E004C0091F0429FBD28B0701D5EA
:100230000280801CC90700D00270704700290BD0D3
:10024000C30702D00270401C491E022904D3830751
:1002500002D50280801C891EE3E70022EEE700221F
:10026000DFE7002203098B422CD3030A8B4211D310
:1002700000239C464EE003460B433CD40022430837
:100280008B4231D303098B421CD3030A8B4201D327
:1002900094463FE0C3098B4201D3CB01C01A5241BF
:1002A00083098B4201D38B01C01A524143098B420F
:1002B00001D34B01C01A524103098B4201D30B01F8
:1002C000C01A5241C3088B4201D3CB00C01A52411D
:1002D00083088B4201D38B00C01A524143088B42E2
:1002E00001D34B00C01A5241411A00D2014652417B
:1002F000104670475DE0CA0F00D04942031000D39A
:100300004042534000229C4603098B422DD3030AEE
:100310008B4212D3FC22890112BA030A8B420CD3FE
:10032000890192118B4208D3890192118B4204D327
:1003300089013AD0921100E08909C3098B4201D3A7
:10034000CB01C01A524183098B4201D38B01C01AE1
:10035000524143098B4201D34B01C01A5241030958
:100360008B4201D30B01C01A5241C3088B4201D307
:10037000CB00C01A524183088B4201D38B00C01AB4
:100380005241D9D243088B4201D34B00C01A52418B
:10039000411A00D20146634652415B10104601D318
:1003A0004042002B00D54942704763465B1000D3A2
:1003B000404201B50020C046C04602BD70477047AC
:1003C0007047000070B5064C7C44064D7D4403E048
:1003D000206800198047241DAC42F9D170BD00008F
:1003E000AC1D0000B41D000000487047C002002092
:1003F00000487047F0020020704770477047704710
:1004000038B504460A4600206946C046C046002862
:1004100005D002462046009900F091F8012038BD31
:1004200010B5012000F0ABF810BDF8B5C046C046CD
:10043000054600200C461020C0460646A819A042DA
:100440000DD9324669460020C046C046070001D19A
:1004500000F095F80098A04200D00546C419FFF7B7
:10046000C3FFF61D07460560F008C0004619284680
:1004700000F05EF8B44204D031463868A21B00F0A8
:100480005EF8F8BD70B50646FFF7AEFF056830466A
:100490000B30C408E400B44201D8002070BD686885
:1004A0002A46002818D00168A14211D30B462146E4
:1004B00008318B4208D3436801194B6003681B1B4A
:1004C0000B605160046001E041685160001D70BD27
:1004D000024640680028E6D121462846FFF790FFF3
:1004E0000028DCD170BDF8B50646FFF781FF00900B
:1004F000054615E0002E02D0E068B0420FD120681A
:1005000028600098A1680768606888472046FFF760
:100510004DFE00980068B84202D00098E8E72546F2
:100520002C68002CE6D1F8BD00487047B8020020C6
:10053000002101604160806070471020704710B555
:100540000346406801E003464068002801D0884225
:10055000F9D31868C3188B4206D0CB1CD808C0004A
:10056000001D411A521A0146081D0A60FFF71EFEBF
:1005700010BD10B5002801D000F008F810BD10B56E
:1005800000F04CF8FFF7F5FF10BD000001491820FE
:10059000ABBEFEE7260002007546FFF7C5FFAE467C
:1005A000050069465346C008C000854618B020B50E
:1005B000FFF7EAFD60BC00274908B6460026C0C523
:1005C000C0C5C0C5C0C5C0C5C0C5C0C5C0C5403D0B
:1005D00049008D46704710B50446C046C0462046C7
:1005E000FFF7C2FD10BD70B505460C460A2000E0BD
:1005F0006D1C00F03BF8002D06D028780028F7D1BC
:1006000002E0641C00F032F8002C02D020780028B0
:10061000F7D10A2000F02AF870BD000010B50128BB
:1006200005D0002103A0FFF7DEFF012010BD09A1C6
:10063000F8E7000053494752544D454D3A204F7555
:1006400074206F662068656170206D656D6F7279CA
:10065000000000003A2048656170206D656D6F7282
:100660007920636F727275707465640008B56946AD
:1006700008700320ABBE08BD70470000024800218F
:1006800001704170704700000000002070B500F05C
:10069000BFFD0D487D21C9000068FFF7E2FD411E46
:1006A0000A480025ED43814209D8094C61610321C4
:1006B000284600F0D3FF0020A06107202061002120
:1006C000284600F0CBFF70BD04000020FFFFFF00B4
:1006D00000E000E010B5012000F0F0F90B4C00281C
:1006E00006D02068002800D08047012000F08CF957
:1006F000022000F0E3F9002806D06068002800D04E
:100700008047022000F080F910BD00007802002030
:1007100010B5042000F0D2F90B4C002806D0A068D8
:10072000002800D08047042000F06EF9082000F077
:10073000C5F9002806D0E068002800D080470820CE
:1007400000F062F910BD00007802002010B50549E4
:1007500010200A69904303D11020086100F0B2FD17
:1007600010BD00000018024072B6FEE7F0B587B079
:100770000F4605461E461446182101A8FFF76FFDD7
:1007800005200007854201D1012012E02148854261
:1007900001D102200DE02048854201D1042008E06B
:1007A0001E48854201D1082003E01D4885422ED114
:1007B00020200021002C0ED00122012C0DD002237C
:1007C000022C0CD0032C0DD0052C0CD0062C0CD0F8
:1007D000072C0DD00EE002910BE0029106E004938D
:1007E000029107E00322029203E00292049201E0E8
:1007F000029304910B49019703964A6B02434A63A3
:10080000496B0140009101A9284600F061F907B049
:10081000F0BD00000004005000080050000C005023
:100820000014005000100240FEE7000010B516480A
:1008300081690A0706D5C16908221143C161FFF722
:100840001DFF10BD4B070122002B05DA8169114302
:10085000816100F01DFC10BD8B0705D58169114336
:10086000816100F0BDFC10BD8A0606D5C169202259
:100870001143C16100F000FC10BDC906FCD5C1697F
:1008800010221143C16110BD00540040FFB5044661
:10089000480683B0000E04901D4616460020284FDF
:1008A00007E0401CB84204D1FFF75EFFFF2007B00D
:1008B000F0BDA1690904C90FF3D100202149024606
:1008C0000191009002232046049900F057F9A06995
:1008D000C007C00FFBD0300AA062A069C007C00FDC
:1008E000FBD0F0B2A062002005E0401CB84202D16B
:1008F0000120A061D8E7A169C907C90FF5D0A06997
:100900004006C00FFBD001200F4940060191009026
:10091000002220460C9B049900F030F906E0A06903
:100920004007C00F02D0606A28706D1CA069800665
:10093000C00FF4D0E06920210843E0610120B6E750
:10094000A86100000020008000240080FFB504465C
:10095000480683B0010E16460020234F0C9D07E089
:10096000401CB84204D1FFF7FFFE012007B0F0BDE4
:10097000A2691204D20FF3D11C4A01921003009015
:1009800000222046AB1C00F0F9F8A069C007C00F98
:10099000FBD0300AA062A069C007C00FFBD0F0B244
:1009A000A062002005E0401CB84202D10120A061F5
:1009B000D9E7A169C907C90FF5D0002008E0069959
:1009C000095CA162A169C907C90FFBD0401CC0B274
:1009D000A842F4D3A0698006C00FFBD0E0692021B3
:1009E0000843E0610020C1E7A8610000002000800A
:1009F00008B50449CA6B0243CA63C96B0140009140
:100A000008BD00000010024002490A6882430A60E3
:100A1000704700008018024010B504790023264971
:100A20000268002C41D0002A3DD04479002C12D01D
:100A3000012C18D0022C19D001238279002A32D03F
:100A40001D498039012A19D0022A20D0032A22D038
:100A50000220034327E04C6894434C6002680C6812
:100A600014430C60E9E70C68944301E00C681443FC
:100A70000C6002684C6814434C60DEE702684C6806
:100A800094434C6000680A6802430A600BE0026805
:100A90000C68944302E002680C6814430C60006820
:100AA0004A6802434A60184610BD0C6894430C60C3
:100AB00000684A688243F5E78018024003490968E4
:100AC000884301D000207047012070478018024001
:100AD000F0B500244CE00123A3401A4047D04B68F6
:100AE000012B01D0022B0FD18E688568134653432A
:100AF0005F00DF19BD4373431D438560CB684568C4
:100B0000534395431D4345600F69C66813465343DD
:100B10005D005D19AE435F433E43C6604E68022EE2
:100B20001FD1FF2A0ED817464A69066A94461A460C
:100B30007A437A431701BF1ABE4367467A43164386
:100B400006620EE0160A324672434F6972437243E0
:100B5000BC461601B71A466ABE4367467A43164337
:100B600046624A6806685343AE431E430660641CEF
:100B70000A681346E340AED10020F0BDF0B5069CF4
:100B80004568660D11431A041143044F059A3E430C
:100B90001143B54321430D434560F0BDFF7BFF0387
:100BA00030B502685208520002608C68CA68036857
:100BB0001F252D021202AB432243134303604A68F0
:100BC0000261026801231A43026083680122D20392
:100BD000934383608C690B6985682343ED0AED02BA
:100BE0001D4385600B69002B02D08368134383602B
:100BF0000C68036803252D05AB43234303604B6951
:100C00004168914319434160002030BD08B5044953
:100C10004A6B02434A63496B0140009108BD0000E2
:100C20000010024010B57D21C900FFF71AFB0449EE
:100C3000401E4861002088610520086110BD000049
:100C400000E000E010B5044600F0E4F9206000F098
:100C5000C1F9606000F0CEF9A06010BD10B50024AD
:100C6000032823D11248406903218007800F09041B
:100C70000843C94340180AD001280CD0022810D0DC
:100C800000F0C8F900F0A6F900F0B4F901E000F0B6
:100C9000C1F904460AE000F00FF8012806D1054C1E
:100CA00004E000F011F8012800D1C403204610BD73
:100CB000401002400024F400024800684005C00FC4
:100CC00070470000001002400248C0698007C00F52
:100CD00070470000401002400248C0687021084080
:100CE00070470000001002400248C0688007800F73
:100CF00070470000001002400248C0684004400EE7
:100D00007047000000100240014908607047000071
:100D100004000020FEB5044600680D460127384057
:100D20005CD12969A868EA690843696911430843E5
:100D300021682B4A114008432060E968606803225B
:100D40001203904308436060A969A06812119043A0
:100D50000843A0602348844203D10320FFF77EFFAD
:100D600006E02148844232D16846FFF76BFF0298C3
:100D700000282CD06E68002E29D029680027EA6947
:100D80000B2924D80123DB039A4213D109068A0DCB
:100D900016498958FFF765FA400071084018314636
:100DA000FFF75FFA81B2124808400907490F014373
:100DB000E1600CE009068A0D0C498958FFF751FAE9
:100DC000710840183146FFF74CFA80B2E06028887D
:100DD000E16A80B2090909010143E1623846FEBDBA
:100DE000F369FFEF00380140004400401419000887
:100DF000F0FF0000F0B58DB01C2106A8FFF72FFA18
:100E000018216846FFF72BFA31494869032212037B
:100E10009043002548610220FFF7F8FE402002269B
:100E20000090012406270196029503AAB0C26946E4
:100E30002848FFF74DFE802000900196029503AAF6
:100E4000B0C269462348FFF743FE6005FFF7D0FDB7
:100E5000214801680902090A01602049E00508608B
:100E60001F4C20683104884320601E480790902062
:100E700006950A90089509950B9506A90C952046AC
:100E8000FFF78EFE6068310608436060E06816492F
:100E90000840E060E068E1138843E06020680901F1
:100EA00088432060206808210843206020681021C2
:100EB0000843206020682021084320602068042126
:100EC000084320602068304320600DB0F0BD000072
:100ED000401002400004005014E400E000E100E093
:100EE000005400406C21C00001F8FFFFF0B58DB048
:100EF0001C2106A8FFF7B3F918216846FFF7AFF9E0
:100F00000120FFF783FE01200627C0020597002479
:100F1000009002250126052002946946039601955A
:100F200004940007FFF7D4FDE80205970090052020
:100F3000029469460396019504940007FFF7C8FDE3
:100F40006805FFF755FD1248079006940894099428
:100F50000B940C9420200F4C0A9006A92046FFF712
:100F60001FFE6068290608436060E0680A4908407F
:100F7000E060E068E1138843E0602068090188438D
:100F8000206020688910884320600DB0F0BD00000B
:100F90001A0910200058004001F8FFFF08480749CF
:100FA0000160084901600121416007498160C16811
:100FB0004907FCD10549016070470000CCCC000016
:100FC0000030004055550000FF0F0000AAAA0000A5
:100FD000FEE77047054989688A093C210A400A40B2
:100FE0000349895CC906C90EC84070470010024019
:100FF0004419000805498968054A4904490F8900D0
:10100000515CC906C90EC84070470000001002407C
:101010008419000870B5154EB06838210840144C8A
:10102000082809D06500102808D030680121800404
:10103000400F8140284616E0204670BDFFF754FE61
:10104000022801D0032800D02C46F068450F6D1C03
:10105000FFF742FE0609761CFFF74EFE604331465D
:10106000FFF7FFF82946FFF7FCF870BD00100240BB
:1010700000127A007047000010B50448007810286C
:1010800003D10121152000F071FB10BD6400002088
:10109000F8B55048426A514F4F49387808230A54EE
:1010A000401C38704C480A7800212830AE2A56D0AF
:1010B0003CDC022A5DD00B2A61D00F2A52D0102AC4
:1010C0004CD1002200218154521C282AFADB4249CB
:1010D00050314B79CA791B0712011B0F1A43D5B245
:1010E0000A798E7896468A7994460A7A0092CB7A63
:1010F0004A7B1B0712011B0F1A43D4B28B7A0A7B5F
:10110000897B022E45D0344E7F27503676783601C3
:101110003E43A1273E400670457075468570654682
:10112000C570009D0571222505724DE082240725BA
:10113000E12A19D0E22A28D0E32A28D0F62A0DD1B4
:10114000552202705622427032228270C1700171A3
:1011500041718171C171112101724372F8BD262163
:101160000170F8BD0370F8BD0422027044708570F0
:1011700003E05422027041708170C170F8BD1322E7
:1011800002700C2242708170F8BD0470F8BD0570C9
:10119000F8BD124FBE78761CF6B2BE70A227012EA3
:1011A0000CD0A12606704570754685706546C570E1
:1011B000009D0571094E0025B57004E0077044706C
:1011C0008370C2700171077244728372C2720173BC
:1011D000F8BD000000540040640000200000002022
:1011E000054A04495078095C401C507003488162EC
:1011F000704700008C0000200000002000540040D8
:1012000002480168491C0160704700000800002086
:1012100070B51F4DA968382001401E481E4C082992
:101220000DD0430010291BD0182913D0202914D029
:10123000286801218004400F8140184624E0206086
:10124000A8683C21800908401449085C2168C14015
:10125000216070BD7D200002F1E70120C003EEE7B0
:10126000E9688A07E968920F4906490F491C032A71
:1012700000D01846FEF7F5FF0146E8684004400E2E
:101280004843E968490F491CFEF7EBFFD7E7000028
:101290000010024000127A000400002044190008E7
:1012A0007047000010B5024800F0BAF810BD000009
:1012B0004001002010B5024800F0B2F810BD000057
:1012C000DC01002038B528200D4C012200900B4B8A
:1012D000D20320212046FFF7D9FA322000F020FA6D
:1012E0000020034603220090120220212046FFF72F
:1012F0002DFB0021152000F039FA38BDB400002084
:10130000005800400EB5002218480192436B02219C
:101310000B434363406B0840154902900B6E01205C
:10132000DB08DB0003430B6610210091694608715E
:101330004A71022088716846FFF76EFB0D48C2684B
:10134000FF230133032109028A431A43C260026862
:101350008A430260084801680902090A020711432A
:1013600001600649802008600EBD000000100240A8
:10137000041802400004005004E400E000E100E032
:1013800010B5224802210268D208D2000A43026046
:1013900001684907490F0229FAD11D4801688215E1
:1013A0001143016001684905C90FFBD01949C268A2
:1013B000194B1A401143C160016801221206114302
:1013C0000160C16812011143C16001688901C90F40
:1013D000FBD081680F221202914381608268022152
:1013E000D208D2000A438260382281681140102955
:1013F000FBD181680722120391438160074C20468C
:10140000FFF710FC2046FFF77FFC10BD00200240D4
:1014100000100240020800208C80FF1F0090D003C3
:1014200030B40169CA699206D20F16D00A689206D2
:10143000D20F12D0496ACAB2018B438B491C4906AC
:10144000490E8B4204D0048B03461C33E2540183C3
:101450004069002801D030BC004730BC704710B54F
:10146000002200F001F810BD10B5022300F002F8D0
:1014700010BD0000FFB50546454F0669454893B0CD
:10148000BE420ED141150522424C031512074E01F2
:1014900040342768374327602468344008941B246D
:1014A0000EE03D4FBE420BD1052204210823120756
:1014B000C66BCC032643C663C66B26401C24089625
:1014C000476B012637434763406B19433040129006
:1014D000022003900020029104900590069002A93A
:1014E00007961046FFF7F4FA1698FF218007000EC2
:1014F000002C0CDBA308294A9B009F183B68A2071D
:10150000D20E91408B43904003433B600EE0220794
:10151000120F083A9308224A9B009F18FA69A30702
:10152000DB0E99408A4398400243FA61002C03DBAA
:1015300030461C49A0400860002014990A91099087
:101540000C210B900E910C900D900F90109009A90A
:101550002869FFF7DFFB286941680922D20291431D
:10156000416081682A2291438160EFF3108001225B
:1015700082F3108829690A6820231A430A6080F3DD
:101580001088286901683143016017B0F0BD000080
:1015900000380140001002400044004000E400E038
:1015A00000ED00E000E100E0044AD2691206D20F2B
:1015B00001D00069816201207047000000380140BD
:1015C00000227D23DB0083604260024B03604261A6
:1015D000016170472C2100080268526810470268B8
:1015E0001268104770B50C460646002505E03068C5
:1015F000641C0268304690476D1C21780029F6D1A2
:10160000284670BD70B50546FFF7E6FF044628463C
:1016100000F002F8001970BD70B505460D21FFF706
:10162000DEFF04460A212846FFF7D9FF001970BDE6
:1016300010B5044C04600446403423756175A275EE
:1016400010BD00005021000803490160002201463E
:1016500040314A758A757047502100088307FF2280
:10166000DB0E9A408907090E9940002808DB8308A1
:1016700009489B001B18186890430843186070477E
:101680000007000F0838830804489B001B18D8691E
:1016900090430843D861704700E400E000ED00E0AB
:1016A00000B505490548FFF78BFF044804499C3005
:1016B000FFF786FF00BD0000003801404001002018
:1016C0000044004010B500230C220B210348FFF713
:1016D000AFFF034A0349FEF78FFD10BDE80000206D
:1016E000000000084916000810B500230C220B2149
:1016F0000348FFF79DFF034A0349FEF77DFD10BD38
:101700000C000020000000084916000803490A6880
:1017100010180A688242FCD37047000008000020BD
:10172000F8B505460F48002400680D490090FEF703
:1017300098FD68430C49074688690B498D69461B2B
:10174000002E01DDA41906E07D21C9000098FEF7F6
:1017500088FD80190419BC4201D82846EDE7F8BD80
:1017600040420F000400002000E000E0602808D2A2
:10177000054A14235843831800299989105801D029
:101780008161704781627047A419000808B542481A
:10179000012102680A4302600068084000903E4848
:1017A00009074038C26B0A43C263C06B084000900F
:1017B000FFF7E6FDFEF76AFFFFF7A4FDFFF71AFB50
:1017C000FFF794FBE12149023448FFF748FE34A1BA
:1017D0003248FFF717FFFFF7E1FB05210F2000F06C
:1017E0007DF80521152000F079F801211520FFF77B
:1017F000BDFF01210F20FFF7B9FF0A20FFF786FF89
:1018000000210F20FFF7B2FF6420FFF77FFF0121C7
:101810000F20FFF7ABFF0A20FFF778FF254C0126CA
:1018200026700025657002272346C0222021224809
:101830000097FFF78BF80A20FFF768FF26706570A6
:101840000B222346920120211B480097FFF77EF8C8
:101850000A20FFF75BFF1322002392012021164884
:101860000095FFF773F80A20FFF750FF26706570A8
:10187000FF222346C13220210F480097FFF766F868
:101880000A20FFF743FF0DA10448FFF7BBFE1149F3
:1018900011480160FDE7000040100240DC0100201B
:1018A00053657269616C207072696E74696E672E1F
:1018B0002E2E0000DC000020005800405A5437351E
:1018C000343820696E697469616C2073756363656F
:1018D00065640000AAAA00000030004070B56028CE
:1018E0000ED208290CD00A4C1422424313190429A1
:1018F00007D09D89A0580A4603232946FEF736FFE4
:1019000070BD1969491CFBD00321FFF7E7FF70BDCB
:10191000A4190008010000000200000004000000FB
:1019200006000000080000000A0000000C00000093
:1019300010000000200000004000000080000000B7
:101940000001000000000000000000000000000096
:101950000000000000000000000000000000000087
:101960000000000001000000020000000300000071
:10197000040000000600000007000000080000004E
:10198000090000000000000000000000000000004E
:101990000000000001000000020000000300000041
:1019A000040000000000005000000040002401403E
:1019B0000100010000000000000000500000004095
:1019C000002401400200020000000004000000505A
:1019D0000000004000240140040003000000000853
:1019E00000000050000000400024014008000400F6
:1019F0000000000C000000500020004000240140C6
:101A00001000010000000010000000500000004025
:101A100000240140200001000000001400000050DC
:101A200000040040002401404000010000000018B4
:101A3000000000500004004000240140800002002B
:101A40000000001C00000050002C014000000000BD
:101A500000010100FFFFFFFF00000050002C0140CB
:101A60000000000000020200FFFFFFFF0000005026
:101A7000002C01400000000000040300FFFFFFFFF6
:101A800000000050002C014000000000000804008D
:101A9000FFFFFFFF000000500000000000000000FA
:101AA00000100000FFFFFFFF0000005000000000DA
:101AB0000000000000200000FFFFFFFF00000050BA
:101AC000000000000000000000400000FFFFFFFFDA
:101AD0000000005000000000000000000080000036
:101AE000FFFFFFFF000400500004004000240140FD
:101AF000010003000000000000040050000400404A
:101B00000024014002000400000000000004005016
:101B1000000000000000000004000000FFFFFFFFC5
:101B20000004005000000000000000000800000059
:101B3000FFFFFFFF00040050000000000000000055
:101B400010000000FFFFFFFF000400500000000035
:101B50000000000020000000FFFFFFFF0004005015
:101B6000000000000000000040000100FFFFFFFF38
:101B7000000400500000000000000000800002008F
:101B8000FFFFFFFF00040050000000000000000005
:101B900000010300FFFFFFFF0004005000000000F1
:101BA0000000000000020400FFFFFFFF00040050DF
:101BB000000000000000000000040000FFFFFFFF25
:101BC00000040050000000000000000000080000B9
:101BD000FFFFFFFF000400500000000000000000B5
:101BE00000100000FFFFFFFF000400500000000095
:101BF0000000000000200000FFFFFFFF0004005075
:101C0000000000000000000000400000FFFFFFFF98
:101C100000040050000000000000000000800000F0
:101C2000FFFFFFFF000800500000000000240140FB
:101C3000010000000000000000080050000000004B
:101C400000240140020000000000000000080050D5
:101C5000000000000024014004000000000000001B
:101C600000080050000000000024014008000000AF
:101C700000000000000800500000000000240140A7
:101C800010000000000000000008005000000000EC
:101C90000024014020000000000000000008005067
:101CA000000000000000000040000100FFFFFFFFF7
:101CB000000800500000000000000000800002004A
:101CC000FFFFFFFF000800500000000000000000C0
:101CD00000010300FFFFFFFF0008005000000000AC
:101CE0000000000000020400FFFFFFFF000800509A
:101CF000000000000000000000040000FFFFFFFFE4
:101D00000008005000000000000000000008000073
:101D1000FFFFFFFF0008005000000000000000006F
:101D200000100000FFFFFFFF00080050000000004F
:101D30000000000000200000FFFFFFFF000800502F
:101D4000000000000000000000400000FFFFFFFF57
:101D500000080050000000000000000000800000AB
:101D6000FFFFFFFF000C005000000000000000001B
:101D700001000000FFFFFFFF000C0050000000000A
:101D80000000000002000000FFFFFFFF000C0050F9
:101D9000000000000000000004000000FFFFFFFF43
:101DA000000C0050000000000000000008000000CF
:101DB000FFFFFFFF000C00500000000000000000CB
:101DC00010000000FFFFFFFF000C005000000000AB
:101DD0000000000020000000FFFFFFFF000C00508B
:101DE000000000000000000040000000FFFFFFFFB7
:101DF000000C005000000000000000008000000007
:101E0000FFFFFFFF000C005000000000000000007A
:101E100000010000FFFFFFFF000C00500000000069
:101E20000000000000020000FFFFFFFF000C005058
:101E3000000000000000000000040000FFFFFFFFA2
:101E4000000C00500000000000000000000800002E
:101E5000FFFFFFFF000C005000000000000000002A
:101E600000100000FFFFFFFF000C0050000000000A
:101E70000000000000200000FFFFFFFF000C0050EA
:101E8000000000000000000000400000FFFFFFFF16
:101E9000000C005000000000000000000080000066
:101EA000FFFFFFFF001400500000000000000000D2
:101EB00001000000FFFFFFFF0014005000000000C1
:101EC0000000000002000000FFFFFFFF00140050B0
:101ED000000000000000000004000000FFFFFFFF02
:101EE0000014005000000000000000000800000086
:101EF000FFFFFFFF00140050000000000000000082
:101F000010000000FFFFFFFF001400500000000061
:101F10000000000020000000FFFFFFFF0014005041
:101F20000000000000000000400000000000000071
:101F300000140050000000000000000080000000BD
:101F4000000000000014005000000000000000002D
:101F5000000100000000000000140050000000001C
:101F6000000000000002000000000000001400500B
:101F7000000000000000000000040000000000005D
:101F800000140050000000000000000000080000E5
:101F9000FFFFFFFF001400500000000000000000E1
:101FA00000100000FFFFFFFF0014005000000000C1
:101FB0000000000000200000FFFFFFFF00140050A1
:101FC000000000000000000000400000FFFFFFFFD5
:101FD000001400500000000000000000008000001D
:101FE000FFFFFFFF000000000000000000000000F5
:101FF00000000000000000000000000000000000E1
:1020000000000000000000000000000000000000D0
:1020100000000000000000000000000000000000C0
:1020200000000000000000000000000000000000B0
:1020300000000000000000000000000000000000A0
:102040000000000000000000000000000000000090
:102050000000000000000000000000000000000080
:102060000000000000000000000000000000000070
:102070000000000000000000000000000000000060
:102080000000000000000000000000000000000050
:102090000000000000000000000000000000000040
:1020A0000000000000000000000000000000000030
:1020B0000000000000000000000000000000000020
:1020C0000000000000000000000000000000000010
:1020D0000000000000000000000000000000000000
:1020E00000000000000000000000000000000000F0
:1020F00000000000000000000000000000000000E0
:1021000000000000000000000000000000000000CF
:1021100000000000000000000000000000000000BF
:10212000000000000000000000000000A9150008E9
:10213000E51500080000000000000000000000009D
:10214000000000000000000000000000000000008F
:1021500000000000000000008421000800000020B2
:102160000C00000004010008902100080C00002071
:102170000C0900002001000871F5FFFF49F5FFFF81
:1021800021F5FFFF000001000024F4000000000022
:04000005080000C12E
:00000001FF
